{"contracts/Lock.sol":{"Lock":{"abi":[{"inputs":[{"internalType":"uint256","name":"_unlockTime","type":"uint256"}],"stateMutability":"payable","type":"constructor"},{"inputs":[{"internalType":"uint256","name":"unlockTime","type":"uint256"}],"name":"InvalidUnlockTime","type":"error"},{"inputs":[{"internalType":"address","name":"owner","type":"address"}],"name":"NotOwner","type":"error"},{"inputs":[{"internalType":"uint256","name":"unlockTime","type":"uint256"}],"name":"UnlockTimeNotReached","type":"error"},{"anonymous":false,"inputs":[{"indexed":false,"internalType":"uint256","name":"amount","type":"uint256"},{"indexed":false,"internalType":"uint256","name":"when","type":"uint256"}],"name":"Withdrawal","type":"event"},{"inputs":[],"name":"owner","outputs":[{"internalType":"address payable","name":"","type":"address"}],"stateMutability":"view","type":"function"},{"inputs":[],"name":"unlockTime","outputs":[{"internalType":"uint256","name":"","type":"uint256"}],"stateMutability":"view","type":"function"},{"inputs":[],"name":"withdraw","outputs":[],"stateMutability":"nonpayable","type":"function"}],"devdoc":{"kind":"dev","methods":{},"version":1},"evm":{"bytecode":{"linkReferences":{},"object":"608060405260405161020f38038061020f83398101604081905261002291610063565b8042106100495760405163d107e31960e01b81526004810182905260240160405180910390fd5b600055600180546001600160a01b0319163317905561007c565b60006020828403121561007557600080fd5b5051919050565b6101848061008b6000396000f3fe608060405234801561001057600080fd5b50600436106100415760003560e01c8063251c1aa3146100465780633ccfd60b146100625780638da5cb5b1461006c575b600080fd5b61004f60005481565b6040519081526020015b60405180910390f35b61006a610097565b005b60015461007f906001600160a01b031681565b6040516001600160a01b039091168152602001610059565b6000544210156100c95760005460405163ccea8a8160e01b81526004016100c091815260200190565b60405180910390fd5b6001546001600160a01b031633146101035760015460405163245aecd360e01b81526001600160a01b0390911660048201526024016100c0565b604080514781524260208201527fbf2ed60bd5b5965d685680c01195c9514e4382e28e3a5a2d2d5244bf59411b93910160405180910390a16001546040516001600160a01b03909116904780156108fc02916000818181858888f19350505050158015610174573d6000803e3d6000fd5b5056fea164736f6c6343000813000a","opcodes":"PUSH1 0x80 PUSH1 0x40 MSTORE PUSH1 0x40 MLOAD PUSH2 0x20F CODESIZE SUB DUP1 PUSH2 0x20F DUP4 CODECOPY DUP2 ADD PUSH1 0x40 DUP2 SWAP1 MSTORE PUSH2 0x22 SWAP2 PUSH2 0x63 JUMP JUMPDEST DUP1 TIMESTAMP LT PUSH2 0x49 JUMPI PUSH1 0x40 MLOAD PUSH4 0xD107E319 PUSH1 0xE0 SHL DUP2 MSTORE PUSH1 0x4 DUP2 ADD DUP3 SWAP1 MSTORE PUSH1 0x24 ADD PUSH1 0x40 MLOAD DUP1 SWAP2 SUB SWAP1 REVERT JUMPDEST PUSH1 0x0 SSTORE PUSH1 0x1 DUP1 SLOAD PUSH1 0x1 PUSH1 0x1 PUSH1 0xA0 SHL SUB NOT AND CALLER OR SWAP1 SSTORE PUSH2 0x7C JUMP JUMPDEST PUSH1 0x0 PUSH1 0x20 DUP3 DUP5 SUB SLT ISZERO PUSH2 0x75 JUMPI PUSH1 0x0 DUP1 REVERT JUMPDEST POP MLOAD SWAP2 SWAP1 POP JUMP JUMPDEST PUSH2 0x184 DUP1 PUSH2 0x8B PUSH1 0x0 CODECOPY PUSH1 0x0 RETURN INVALID PUSH1 0x80 PUSH1 0x40 MSTORE CALLVALUE DUP1 ISZERO PUSH2 0x10 JUMPI PUSH1 0x0 DUP1 REVERT JUMPDEST POP PUSH1 0x4 CALLDATASIZE LT PUSH2 0x41 JUMPI PUSH1 0x0 CALLDATALOAD PUSH1 0xE0 SHR DUP1 PUSH4 0x251C1AA3 EQ PUSH2 0x46 JUMPI DUP1 PUSH4 0x3CCFD60B EQ PUSH2 0x62 JUMPI DUP1 PUSH4 0x8DA5CB5B EQ PUSH2 0x6C JUMPI JUMPDEST PUSH1 0x0 DUP1 REVERT JUMPDEST PUSH2 0x4F PUSH1 0x0 SLOAD DUP2 JUMP JUMPDEST PUSH1 0x40 MLOAD SWAP1 DUP2 MSTORE PUSH1 0x20 ADD JUMPDEST PUSH1 0x40 MLOAD DUP1 SWAP2 SUB SWAP1 RETURN JUMPDEST PUSH2 0x6A PUSH2 0x97 JUMP JUMPDEST STOP JUMPDEST PUSH1 0x1 SLOAD PUSH2 0x7F SWAP1 PUSH1 0x1 PUSH1 0x1 PUSH1 0xA0 SHL SUB AND DUP2 JUMP JUMPDEST PUSH1 0x40 MLOAD PUSH1 0x1 PUSH1 0x1 PUSH1 0xA0 SHL SUB SWAP1 SWAP2 AND DUP2 MSTORE PUSH1 0x20 ADD PUSH2 0x59 JUMP JUMPDEST PUSH1 0x0 SLOAD TIMESTAMP LT ISZERO PUSH2 0xC9 JUMPI PUSH1 0x0 SLOAD PUSH1 0x40 MLOAD PUSH4 0xCCEA8A81 PUSH1 0xE0 SHL DUP2 MSTORE PUSH1 0x4 ADD PUSH2 0xC0 SWAP2 DUP2 MSTORE PUSH1 0x20 ADD SWAP1 JUMP JUMPDEST PUSH1 0x40 MLOAD DUP1 SWAP2 SUB SWAP1 REVERT JUMPDEST PUSH1 0x1 SLOAD PUSH1 0x1 PUSH1 0x1 PUSH1 0xA0 SHL SUB AND CALLER EQ PUSH2 0x103 JUMPI PUSH1 0x1 SLOAD PUSH1 0x40 MLOAD PUSH4 0x245AECD3 PUSH1 0xE0 SHL DUP2 MSTORE PUSH1 0x1 PUSH1 0x1 PUSH1 0xA0 SHL SUB SWAP1 SWAP2 AND PUSH1 0x4 DUP3 ADD MSTORE PUSH1 0x24 ADD PUSH2 0xC0 JUMP JUMPDEST PUSH1 0x40 DUP1 MLOAD SELFBALANCE DUP2 MSTORE TIMESTAMP PUSH1 0x20 DUP3 ADD MSTORE PUSH32 0xBF2ED60BD5B5965D685680C01195C9514E4382E28E3A5A2D2D5244BF59411B93 SWAP2 ADD PUSH1 0x40 MLOAD DUP1 SWAP2 SUB SWAP1 LOG1 PUSH1 0x1 SLOAD PUSH1 0x40 MLOAD PUSH1 0x1 PUSH1 0x1 PUSH1 0xA0 SHL SUB SWAP1 SWAP2 AND SWAP1 SELFBALANCE DUP1 ISZERO PUSH2 0x8FC MUL SWAP2 PUSH1 0x0 DUP2 DUP2 DUP2 DUP6 DUP9 DUP9 CALL SWAP4 POP POP POP POP ISZERO DUP1 ISZERO PUSH2 0x174 JUMPI RETURNDATASIZE PUSH1 0x0 DUP1 RETURNDATACOPY RETURNDATASIZE PUSH1 0x0 REVERT JUMPDEST POP JUMP INVALID LOG1 PUSH5 0x736F6C6343 STOP ADDMOD SGT STOP EXP "},"gasEstimates":{"creation":{"codeDepositCost":"77600","executionCost":"infinite","totalCost":"infinite"},"external":{"owner()":"2359","unlockTime()":"2262","withdraw()":"infinite"}},"methodIdentifiers":{"owner()":"8da5cb5b","unlockTime()":"251c1aa3","withdraw()":"3ccfd60b"}},"storageLayout":{"storage":[{"astId":15,"contract":"contracts/Lock.sol:Lock","label":"unlockTime","offset":0,"slot":"0","type":"t_uint256"},{"astId":17,"contract":"contracts/Lock.sol:Lock","label":"owner","offset":0,"slot":"1","type":"t_address_payable"}],"types":{"t_address_payable":{"encoding":"inplace","label":"address payable","numberOfBytes":"20"},"t_uint256":{"encoding":"inplace","label":"uint256","numberOfBytes":"32"}}},"userdoc":{"kind":"user","methods":{},"version":1}}}}