{"contracts/YieldFarming.sol":{"YieldFarming":{"abi":[{"inputs":[{"internalType":"string","name":"name","type":"string"},{"internalType":"string","name":"symbol","type":"string"}],"stateMutability":"nonpayable","type":"constructor"},{"inputs":[{"internalType":"address","name":"spender","type":"address"},{"internalType":"uint256","name":"allowance","type":"uint256"},{"internalType":"uint256","name":"needed","type":"uint256"}],"name":"ERC20InsufficientAllowance","type":"error"},{"inputs":[{"internalType":"address","name":"sender","type":"address"},{"internalType":"uint256","name":"balance","type":"uint256"},{"internalType":"uint256","name":"needed","type":"uint256"}],"name":"ERC20InsufficientBalance","type":"error"},{"inputs":[{"internalType":"address","name":"approver","type":"address"}],"name":"ERC20InvalidApprover","type":"error"},{"inputs":[{"internalType":"address","name":"receiver","type":"address"}],"name":"ERC20InvalidReceiver","type":"error"},{"inputs":[{"internalType":"address","name":"sender","type":"address"}],"name":"ERC20InvalidSender","type":"error"},{"inputs":[{"internalType":"address","name":"spender","type":"address"}],"name":"ERC20InvalidSpender","type":"error"},{"anonymous":false,"inputs":[{"indexed":true,"internalType":"address","name":"owner","type":"address"},{"indexed":true,"internalType":"address","name":"spender","type":"address"},{"indexed":false,"internalType":"uint256","name":"value","type":"uint256"}],"name":"Approval","type":"event"},{"anonymous":false,"inputs":[{"indexed":true,"internalType":"address","name":"from","type":"address"},{"indexed":true,"internalType":"address","name":"to","type":"address"},{"indexed":false,"internalType":"uint256","name":"value","type":"uint256"}],"name":"Transfer","type":"event"},{"inputs":[{"internalType":"uint256","name":"maxAmount","type":"uint256"},{"internalType":"uint256","name":"yieldPercent","type":"uint256"},{"internalType":"uint256","name":"minDeposit","type":"uint256"},{"internalType":"uint256","name":"rewardTime","type":"uint256"}],"name":"addPool","outputs":[],"stateMutability":"nonpayable","type":"function"},{"inputs":[{"internalType":"address","name":"owner","type":"address"},{"internalType":"address","name":"spender","type":"address"}],"name":"allowance","outputs":[{"internalType":"uint256","name":"","type":"uint256"}],"stateMutability":"view","type":"function"},{"inputs":[{"internalType":"address","name":"spender","type":"address"},{"internalType":"uint256","name":"value","type":"uint256"}],"name":"approve","outputs":[{"internalType":"bool","name":"","type":"bool"}],"stateMutability":"nonpayable","type":"function"},{"inputs":[{"internalType":"address","name":"account","type":"address"}],"name":"balanceOf","outputs":[{"internalType":"uint256","name":"","type":"uint256"}],"stateMutability":"view","type":"function"},{"inputs":[{"internalType":"uint256","name":"poolId","type":"uint256"}],"name":"checkClaimableRewards","outputs":[{"internalType":"uint256","name":"","type":"uint256"}],"stateMutability":"view","type":"function"},{"inputs":[{"internalType":"uint256","name":"poolId","type":"uint256"}],"name":"checkPoolDetails","outputs":[{"internalType":"uint256","name":"","type":"uint256"},{"internalType":"uint256","name":"","type":"uint256"},{"internalType":"uint256","name":"","type":"uint256"},{"internalType":"uint256","name":"","type":"uint256"}],"stateMutability":"view","type":"function"},{"inputs":[{"internalType":"uint256","name":"poolId","type":"uint256"}],"name":"checkRemainingCapacity","outputs":[{"internalType":"uint256","name":"","type":"uint256"}],"stateMutability":"view","type":"function"},{"inputs":[{"internalType":"uint256","name":"poolId","type":"uint256"}],"name":"checkUserDepositInPool","outputs":[{"internalType":"address[]","name":"","type":"address[]"},{"internalType":"uint256[]","name":"","type":"uint256[]"}],"stateMutability":"view","type":"function"},{"inputs":[{"internalType":"address","name":"user","type":"address"}],"name":"checkUserDeposits","outputs":[{"internalType":"uint256","name":"","type":"uint256"},{"internalType":"uint256","name":"","type":"uint256"}],"stateMutability":"view","type":"function"},{"inputs":[],"name":"checkWhaleWallets","outputs":[{"internalType":"address[]","name":"","type":"address[]"}],"stateMutability":"view","type":"function"},{"inputs":[{"internalType":"uint256","name":"poolId","type":"uint256"}],"name":"claimRewards","outputs":[],"stateMutability":"nonpayable","type":"function"},{"inputs":[],"name":"decimals","outputs":[{"internalType":"uint8","name":"","type":"uint8"}],"stateMutability":"view","type":"function"},{"inputs":[{"internalType":"uint256","name":"poolId","type":"uint256"}],"name":"depositWei","outputs":[],"stateMutability":"payable","type":"function"},{"inputs":[],"name":"name","outputs":[{"internalType":"string","name":"","type":"string"}],"stateMutability":"view","type":"function"},{"inputs":[],"name":"owner","outputs":[{"internalType":"address","name":"","type":"address"}],"stateMutability":"view","type":"function"},{"inputs":[],"name":"symbol","outputs":[{"internalType":"string","name":"","type":"string"}],"stateMutability":"view","type":"function"},{"inputs":[],"name":"totalSupply","outputs":[{"internalType":"uint256","name":"","type":"uint256"}],"stateMutability":"view","type":"function"},{"inputs":[{"internalType":"address","name":"to","type":"address"},{"internalType":"uint256","name":"value","type":"uint256"}],"name":"transfer","outputs":[{"internalType":"bool","name":"","type":"bool"}],"stateMutability":"nonpayable","type":"function"},{"inputs":[{"internalType":"address","name":"from","type":"address"},{"internalType":"address","name":"to","type":"address"},{"internalType":"uint256","name":"value","type":"uint256"}],"name":"transferFrom","outputs":[{"internalType":"bool","name":"","type":"bool"}],"stateMutability":"nonpayable","type":"function"},{"inputs":[{"internalType":"uint256","name":"poolId","type":"uint256"},{"internalType":"uint256","name":"amount","type":"uint256"}],"name":"withdrawWei","outputs":[],"stateMutability":"nonpayable","type":"function"}],"devdoc":{"errors":{"ERC20InsufficientAllowance(address,uint256,uint256)":[{"details":"Indicates a failure with the `spender`’s `allowance`. Used in transfers.","params":{"allowance":"Amount of tokens a `spender` is allowed to operate with.","needed":"Minimum amount required to perform a transfer.","spender":"Address that may be allowed to operate on tokens without being their owner."}}],"ERC20InsufficientBalance(address,uint256,uint256)":[{"details":"Indicates an error related to the current `balance` of a `sender`. Used in transfers.","params":{"balance":"Current balance for the interacting account.","needed":"Minimum amount required to perform a transfer.","sender":"Address whose tokens are being transferred."}}],"ERC20InvalidApprover(address)":[{"details":"Indicates a failure with the `approver` of a token to be approved. Used in approvals.","params":{"approver":"Address initiating an approval operation."}}],"ERC20InvalidReceiver(address)":[{"details":"Indicates a failure with the token `receiver`. Used in transfers.","params":{"receiver":"Address to which tokens are being transferred."}}],"ERC20InvalidSender(address)":[{"details":"Indicates a failure with the token `sender`. Used in transfers.","params":{"sender":"Address whose tokens are being transferred."}}],"ERC20InvalidSpender(address)":[{"details":"Indicates a failure with the `spender` to be approved. Used in approvals.","params":{"spender":"Address that may be allowed to operate on tokens without being their owner."}}]},"events":{"Approval(address,address,uint256)":{"details":"Emitted when the allowance of a `spender` for an `owner` is set by a call to {approve}. `value` is the new allowance."},"Transfer(address,address,uint256)":{"details":"Emitted when `value` tokens are moved from one account (`from`) to another (`to`). Note that `value` may be zero."}},"kind":"dev","methods":{"allowance(address,address)":{"details":"See {IERC20-allowance}."},"approve(address,uint256)":{"details":"See {IERC20-approve}. NOTE: If `value` is the maximum `uint256`, the allowance is not updated on `transferFrom`. This is semantically equivalent to an infinite approval. Requirements: - `spender` cannot be the zero address."},"balanceOf(address)":{"details":"See {IERC20-balanceOf}."},"decimals()":{"details":"Returns the number of decimals used to get its user representation. For example, if `decimals` equals `2`, a balance of `505` tokens should be displayed to a user as `5.05` (`505 / 10 ** 2`). Tokens usually opt for a value of 18, imitating the relationship between Ether and Wei. This is the default value returned by this function, unless it's overridden. NOTE: This information is only used for _display_ purposes: it in no way affects any of the arithmetic of the contract, including {IERC20-balanceOf} and {IERC20-transfer}."},"name()":{"details":"Returns the name of the token."},"symbol()":{"details":"Returns the symbol of the token, usually a shorter version of the name."},"totalSupply()":{"details":"See {IERC20-totalSupply}."},"transfer(address,uint256)":{"details":"See {IERC20-transfer}. Requirements: - `to` cannot be the zero address. - the caller must have a balance of at least `value`."},"transferFrom(address,address,uint256)":{"details":"See {IERC20-transferFrom}. Emits an {Approval} event indicating the updated allowance. This is not required by the EIP. See the note at the beginning of {ERC20}. NOTE: Does not update the allowance if the current allowance is the maximum `uint256`. Requirements: - `from` and `to` cannot be the zero address. - `from` must have a balance of at least `value`. - the caller must have allowance for ``from``'s tokens of at least `value`."}},"version":1},"evm":{"bytecode":{"linkReferences":{},"object":"60806040526127106006553480156200001757600080fd5b506040516200191f3803806200191f8339810160408190526200003a916200013c565b818160036200004a838262000235565b50600462000059828262000235565b5050600580546001600160a01b031916331790555062000301915050565b634e487b7160e01b600052604160045260246000fd5b600082601f8301126200009f57600080fd5b81516001600160401b0380821115620000bc57620000bc62000077565b604051601f8301601f19908116603f01168101908282118183101715620000e757620000e762000077565b816040528381526020925086838588010111156200010457600080fd5b600091505b8382101562000128578582018301518183018401529082019062000109565b600093810190920192909252949350505050565b600080604083850312156200015057600080fd5b82516001600160401b03808211156200016857600080fd5b62000176868387016200008d565b935060208501519150808211156200018d57600080fd5b506200019c858286016200008d565b9150509250929050565b600181811c90821680620001bb57607f821691505b602082108103620001dc57634e487b7160e01b600052602260045260246000fd5b50919050565b601f8211156200023057600081815260208120601f850160051c810160208610156200020b5750805b601f850160051c820191505b818110156200022c5782815560010162000217565b5050505b505050565b81516001600160401b0381111562000251576200025162000077565b6200026981620002628454620001a6565b84620001e2565b602080601f831160018114620002a15760008415620002885750858301515b600019600386901b1c1916600185901b1785556200022c565b600085815260208120601f198616915b82811015620002d257888601518255948401946001909101908401620002b1565b5085821015620002f15787850151600019600388901b60f8161c191681555b5050505050600190811b01905550565b61160e80620003116000396000f3fe60806040526004361061015f5760003560e01c806395d89b41116100c0578063c94c178b11610074578063dd62ed3e11610059578063dd62ed3e1461041d578063e0ebf61a14610463578063f3bc21b91461048357600080fd5b8063c94c178b146103cd578063ca593db0146103fb57600080fd5b8063a8376b3c116100a5578063a8376b3c1461036d578063a9059cbb1461038d578063b7c7c4e0146103ad57600080fd5b806395d89b4114610345578063a3f81da01461035a57600080fd5b8063313ce5671161011757806370a08231116100fc57806370a08231146102715780638da5cb5b146102a75780638fb0a9f4146102df57600080fd5b8063313ce5671461022057806331d982371461023c57600080fd5b80630962ef79116101485780630962ef79146101bf57806318160ddd146101e157806323b872dd1461020057600080fd5b806306fdde0314610164578063095ea7b31461018f575b600080fd5b34801561017057600080fd5b506101796104a3565b60405161018691906111dd565b60405180910390f35b34801561019b57600080fd5b506101af6101aa366004611247565b610535565b6040519015158152602001610186565b3480156101cb57600080fd5b506101df6101da366004611271565b61054f565b005b3480156101ed57600080fd5b506002545b604051908152602001610186565b34801561020c57600080fd5b506101af61021b36600461128a565b610627565b34801561022c57600080fd5b5060405160128152602001610186565b34801561024857600080fd5b5061025c6102573660046112c6565b61064b565b60408051928352602083019190915201610186565b34801561027d57600080fd5b506101f261028c3660046112c6565b6001600160a01b031660009081526020819052604090205490565b3480156102b357600080fd5b506005546102c7906001600160a01b031681565b6040516001600160a01b039091168152602001610186565b3480156102eb57600080fd5b506103256102fa366004611271565b6000908152600b60205260409020600181015460028201546003830154600490930154919390929190565b604080519485526020850193909352918301526060820152608001610186565b34801561035157600080fd5b50610179610758565b6101df610368366004611271565b610767565b34801561037957600080fd5b506101df6103883660046112e8565b610984565b34801561039957600080fd5b506101af6103a8366004611247565b610ae1565b3480156103b957600080fd5b506101df6103c836600461130a565b610aef565b3480156103d957600080fd5b506103ed6103e8366004611271565b610c25565b604051610186929190611380565b34801561040757600080fd5b50610410610d8a565b60405161018691906113d7565b34801561042957600080fd5b506101f26104383660046113ea565b6001600160a01b03918216600090815260016020908152604080832093909416825291909152205490565b34801561046f57600080fd5b506101f261047e366004611271565b610deb565b34801561048f57600080fd5b506101f261049e366004611271565b610e9b565b6060600380546104b29061141d565b80601f01602080910402602001604051908101604052809291908181526020018280546104de9061141d565b801561052b5780601f106105005761010080835404028352916020019161052b565b820191906000526020600020905b81548152906001019060200180831161050e57829003601f168201915b5050505050905090565b600033610543818585610ebe565b60019150505b92915050565b600061055a82610deb565b9050600081116105b15760405162461bcd60e51b815260206004820152600a60248201527f6e6f20726577617264730000000000000000000000000000000000000000000060448201526064015b60405180910390fd5b3360009081526008602052604090205460ff16156105e35760646105d682607861146d565b6105e09190611484565b90505b6000828152600b6020908152604080832033808552600690910190925290912042600190910155600554610623916001600160a01b039091169083610ecb565b5050565b600033610635858285610ff5565b610640858585611073565b506001949350505050565b6000806000805b600a54811015610737576000818152600b602090815260408083206001600160a01b038916845260060190915281206001015461068f90426114a6565b6000838152600b6020526040812060040154919250906106af9083611484565b6000848152600b6020526040812060020154919250906106d090839061146d565b6000858152600b602090815260408083206001600160a01b038d1684526006019091528120549192509060649061070890849061146d565b6107129190611484565b905061071e81876114b9565b955050505050808061072f906114cc565b915050610652565b506001600160a01b0390931660009081526009602052604090205493915050565b6060600480546104b29061141d565b6000818152600b602052604090206003015434116107c75760405162461bcd60e51b815260206004820152601460248201527f496e73756666696369656e74204465706f73697400000000000000000000000060448201526064016105a8565b6000818152600b60205260409020600501546107e390346114b9565b6000828152600b602052604090206001015410156108435760405162461bcd60e51b815260206004820152601260248201527f6d6178206c696d6974206578636565646564000000000000000000000000000060448201526064016105a8565b6000818152600b6020526040812060050180543492906108649084906114b9565b909155505033600090815260096020526040812080543492906108889084906114b9565b90915550506000818152600b6020818152604080842033808652600682018452828620348155426001918201558254808852600784018652938720805473ffffffffffffffffffffffffffffffffffffffff19169092179091558686529390925281549093906108f99084906114b9565b909155505060065433600090815260096020526040902054111561062357336000818152600860205260408120805460ff191660019081179091556007805491820181559091527fa66cc928b5edb82af9bd49922954155ab7b0942694bea4ce44661d9a8736c68801805473ffffffffffffffffffffffffffffffffffffffff191690911790555050565b6000828152600b602090815260408083203384526006019091529020546109ed5760405162461bcd60e51b815260206004820152601260248201527f696e73756666696369656e742066756e6473000000000000000000000000000060448201526064016105a8565b6000828152600b6020908152604080832033845260060190915281208054839290610a199084906114a6565b90915550506000828152600b602052604081206005018054839290610a3f9084906114a6565b90915550503360009081526009602052604081208054839290610a639084906114a6565b90915550506000828152600b602090815260408083203384526006019091528120549003610aaf576000828152600b602090815260408083203384526006019091529020426001909101555b604051339082156108fc029083906000818181858888f19350505050158015610adc573d6000803e3d6000fd5b505050565b600033610543818585611073565b6005546001600160a01b03163314610b535760405162461bcd60e51b815260206004820152602160248201527f4f6e6c79206f776e65722063616e2063616c6c20746869732066756e6374696f6044820152603760f91b60648201526084016105a8565b838210610ba25760405162461bcd60e51b815260206004820152601b60248201527f6d696e2073686f756c64206265206c657373207468616e206d6178000000000060448201526064016105a8565b610bc133610bb26002600a6115c9565b610bbc908761146d565b6110d2565b600a80546000908152600b602052604080822060010187905582548252808220600201869055825482528082206003018590558254825280822060040184905582548252812060050181905581549190610c1a836114cc565b919050555050505050565b6000818152600b60205260408120546060918291908167ffffffffffffffff811115610c5357610c536115d5565b604051908082528060200260200182016040528015610c7c578160200160208202803683370190505b50905060008267ffffffffffffffff811115610c9a57610c9a6115d5565b604051908082528060200260200182016040528015610cc3578160200160208202803683370190505b50905060005b83811015610d7e576000878152600b6020908152604080832084845260070190915290205483516001600160a01b03909116908190859084908110610d1057610d106115eb565b6001600160a01b0392831660209182029290920181019190915260008a8152600b8252604080822093851682526006909301909152205483518190859085908110610d5d57610d5d6115eb565b60200260200101818152505050508080610d76906114cc565b915050610cc9565b50909590945092505050565b6060600780548060200260200160405190810160405280929190818152602001828054801561052b57602002820191906000526020600020905b81546001600160a01b03168152600190910190602001808311610dc4575050505050905090565b6000818152600b602090815260408083203384526006019091528120600101548190610e1790426114a6565b6000848152600b602052604081206004015491925090610e379083611484565b6000858152600b602052604081206002015491925090610e5890839061146d565b6000868152600b6020908152604080832033845260060190915281205491925090606490610e8790849061146d565b610e919190611484565b9695505050505050565b6000818152600b60205260408120600581015460019091015461054991906114a6565b610adc8383836001611108565b6001600160a01b038316610ef6578060026000828254610eeb91906114b9565b90915550610f689050565b6001600160a01b03831660009081526020819052604090205481811015610f495760405163391434e360e21b81526001600160a01b038516600482015260248101829052604481018390526064016105a8565b6001600160a01b03841660009081526020819052604090209082900390555b6001600160a01b038216610f8457600280548290039055610fa3565b6001600160a01b03821660009081526020819052604090208054820190555b816001600160a01b0316836001600160a01b03167fddf252ad1be2c89b69c2b068fc378daa952ba7f163c4a11628f55a4df523b3ef83604051610fe891815260200190565b60405180910390a3505050565b6001600160a01b03838116600090815260016020908152604080832093861683529290522054600019811461106d578181101561105e57604051637dc7a0d960e11b81526001600160a01b038416600482015260248101829052604481018390526064016105a8565b61106d84848484036000611108565b50505050565b6001600160a01b03831661109d57604051634b637e8f60e11b8152600060048201526024016105a8565b6001600160a01b0382166110c75760405163ec442f0560e01b8152600060048201526024016105a8565b610adc838383610ecb565b6001600160a01b0382166110fc5760405163ec442f0560e01b8152600060048201526024016105a8565b61062360008383610ecb565b6001600160a01b0384166111325760405163e602df0560e01b8152600060048201526024016105a8565b6001600160a01b03831661115c57604051634a1406b160e11b8152600060048201526024016105a8565b6001600160a01b038085166000908152600160209081526040808320938716835292905220829055801561106d57826001600160a01b0316846001600160a01b03167f8c5be1e5ebec7d5bd14f71427d1e84f3dd0314c0f7b2291e5b200ac8c7c3b925846040516111cf91815260200190565b60405180910390a350505050565b600060208083528351808285015260005b8181101561120a578581018301518582016040015282016111ee565b506000604082860101526040601f19601f8301168501019250505092915050565b80356001600160a01b038116811461124257600080fd5b919050565b6000806040838503121561125a57600080fd5b6112638361122b565b946020939093013593505050565b60006020828403121561128357600080fd5b5035919050565b60008060006060848603121561129f57600080fd5b6112a88461122b565b92506112b66020850161122b565b9150604084013590509250925092565b6000602082840312156112d857600080fd5b6112e18261122b565b9392505050565b600080604083850312156112fb57600080fd5b50508035926020909101359150565b6000806000806080858703121561132057600080fd5b5050823594602084013594506040840135936060013592509050565b600081518084526020808501945080840160005b838110156113755781516001600160a01b031687529582019590820190600101611350565b509495945050505050565b604081526000611393604083018561133c565b82810360208481019190915284518083528582019282019060005b818110156113ca578451835293830193918301916001016113ae565b5090979650505050505050565b6020815260006112e1602083018461133c565b600080604083850312156113fd57600080fd5b6114068361122b565b91506114146020840161122b565b90509250929050565b600181811c9082168061143157607f821691505b60208210810361145157634e487b7160e01b600052602260045260246000fd5b50919050565b634e487b7160e01b600052601160045260246000fd5b808202811582820484141761054957610549611457565b6000826114a157634e487b7160e01b600052601260045260246000fd5b500490565b8181038181111561054957610549611457565b8082018082111561054957610549611457565b6000600182016114de576114de611457565b5060010190565b600181815b8085111561152057816000190482111561150657611506611457565b8085161561151357918102915b93841c93908002906114ea565b509250929050565b60008261153757506001610549565b8161154457506000610549565b816001811461155a576002811461156457611580565b6001915050610549565b60ff84111561157557611575611457565b50506001821b610549565b5060208310610133831016604e8410600b84101617156115a3575081810a610549565b6115ad83836114e5565b80600019048211156115c1576115c1611457565b029392505050565b60006112e18383611528565b634e487b7160e01b600052604160045260246000fd5b634e487b7160e01b600052603260045260246000fdfea164736f6c6343000814000a","opcodes":"PUSH1 0x80 PUSH1 0x40 MSTORE PUSH2 0x2710 PUSH1 0x6 SSTORE CALLVALUE DUP1 ISZERO PUSH3 0x17 JUMPI PUSH1 0x0 DUP1 REVERT JUMPDEST POP PUSH1 0x40 MLOAD PUSH3 0x191F CODESIZE SUB DUP1 PUSH3 0x191F DUP4 CODECOPY DUP2 ADD PUSH1 0x40 DUP2 SWAP1 MSTORE PUSH3 0x3A SWAP2 PUSH3 0x13C JUMP JUMPDEST DUP2 DUP2 PUSH1 0x3 PUSH3 0x4A DUP4 DUP3 PUSH3 0x235 JUMP JUMPDEST POP PUSH1 0x4 PUSH3 0x59 DUP3 DUP3 PUSH3 0x235 JUMP JUMPDEST POP POP PUSH1 0x5 DUP1 SLOAD PUSH1 0x1 PUSH1 0x1 PUSH1 0xA0 SHL SUB NOT AND CALLER OR SWAP1 SSTORE POP PUSH3 0x301 SWAP2 POP POP JUMP JUMPDEST PUSH4 0x4E487B71 PUSH1 0xE0 SHL PUSH1 0x0 MSTORE PUSH1 0x41 PUSH1 0x4 MSTORE PUSH1 0x24 PUSH1 0x0 REVERT JUMPDEST PUSH1 0x0 DUP3 PUSH1 0x1F DUP4 ADD SLT PUSH3 0x9F JUMPI PUSH1 0x0 DUP1 REVERT JUMPDEST DUP2 MLOAD PUSH1 0x1 PUSH1 0x1 PUSH1 0x40 SHL SUB DUP1 DUP3 GT ISZERO PUSH3 0xBC JUMPI PUSH3 0xBC PUSH3 0x77 JUMP JUMPDEST PUSH1 0x40 MLOAD PUSH1 0x1F DUP4 ADD PUSH1 0x1F NOT SWAP1 DUP2 AND PUSH1 0x3F ADD AND DUP2 ADD SWAP1 DUP3 DUP3 GT DUP2 DUP4 LT OR ISZERO PUSH3 0xE7 JUMPI PUSH3 0xE7 PUSH3 0x77 JUMP JUMPDEST DUP2 PUSH1 0x40 MSTORE DUP4 DUP2 MSTORE PUSH1 0x20 SWAP3 POP DUP7 DUP4 DUP6 DUP9 ADD ADD GT ISZERO PUSH3 0x104 JUMPI PUSH1 0x0 DUP1 REVERT JUMPDEST PUSH1 0x0 SWAP2 POP JUMPDEST DUP4 DUP3 LT ISZERO PUSH3 0x128 JUMPI DUP6 DUP3 ADD DUP4 ADD MLOAD DUP2 DUP4 ADD DUP5 ADD MSTORE SWAP1 DUP3 ADD SWAP1 PUSH3 0x109 JUMP JUMPDEST PUSH1 0x0 SWAP4 DUP2 ADD SWAP1 SWAP3 ADD SWAP3 SWAP1 SWAP3 MSTORE SWAP5 SWAP4 POP POP POP POP JUMP JUMPDEST PUSH1 0x0 DUP1 PUSH1 0x40 DUP4 DUP6 SUB SLT ISZERO PUSH3 0x150 JUMPI PUSH1 0x0 DUP1 REVERT JUMPDEST DUP3 MLOAD PUSH1 0x1 PUSH1 0x1 PUSH1 0x40 SHL SUB DUP1 DUP3 GT ISZERO PUSH3 0x168 JUMPI PUSH1 0x0 DUP1 REVERT JUMPDEST PUSH3 0x176 DUP7 DUP4 DUP8 ADD PUSH3 0x8D JUMP JUMPDEST SWAP4 POP PUSH1 0x20 DUP6 ADD MLOAD SWAP2 POP DUP1 DUP3 GT ISZERO PUSH3 0x18D JUMPI PUSH1 0x0 DUP1 REVERT JUMPDEST POP PUSH3 0x19C DUP6 DUP3 DUP7 ADD PUSH3 0x8D JUMP JUMPDEST SWAP2 POP POP SWAP3 POP SWAP3 SWAP1 POP JUMP JUMPDEST PUSH1 0x1 DUP2 DUP2 SHR SWAP1 DUP3 AND DUP1 PUSH3 0x1BB JUMPI PUSH1 0x7F DUP3 AND SWAP2 POP JUMPDEST PUSH1 0x20 DUP3 LT DUP2 SUB PUSH3 0x1DC JUMPI PUSH4 0x4E487B71 PUSH1 0xE0 SHL PUSH1 0x0 MSTORE PUSH1 0x22 PUSH1 0x4 MSTORE PUSH1 0x24 PUSH1 0x0 REVERT JUMPDEST POP SWAP2 SWAP1 POP JUMP JUMPDEST PUSH1 0x1F DUP3 GT ISZERO PUSH3 0x230 JUMPI PUSH1 0x0 DUP2 DUP2 MSTORE PUSH1 0x20 DUP2 KECCAK256 PUSH1 0x1F DUP6 ADD PUSH1 0x5 SHR DUP2 ADD PUSH1 0x20 DUP7 LT ISZERO PUSH3 0x20B JUMPI POP DUP1 JUMPDEST PUSH1 0x1F DUP6 ADD PUSH1 0x5 SHR DUP3 ADD SWAP2 POP JUMPDEST DUP2 DUP2 LT ISZERO PUSH3 0x22C JUMPI DUP3 DUP2 SSTORE PUSH1 0x1 ADD PUSH3 0x217 JUMP JUMPDEST POP POP POP JUMPDEST POP POP POP JUMP JUMPDEST DUP2 MLOAD PUSH1 0x1 PUSH1 0x1 PUSH1 0x40 SHL SUB DUP2 GT ISZERO PUSH3 0x251 JUMPI PUSH3 0x251 PUSH3 0x77 JUMP JUMPDEST PUSH3 0x269 DUP2 PUSH3 0x262 DUP5 SLOAD PUSH3 0x1A6 JUMP JUMPDEST DUP5 PUSH3 0x1E2 JUMP JUMPDEST PUSH1 0x20 DUP1 PUSH1 0x1F DUP4 GT PUSH1 0x1 DUP2 EQ PUSH3 0x2A1 JUMPI PUSH1 0x0 DUP5 ISZERO PUSH3 0x288 JUMPI POP DUP6 DUP4 ADD MLOAD JUMPDEST PUSH1 0x0 NOT PUSH1 0x3 DUP7 SWAP1 SHL SHR NOT AND PUSH1 0x1 DUP6 SWAP1 SHL OR DUP6 SSTORE PUSH3 0x22C JUMP JUMPDEST PUSH1 0x0 DUP6 DUP2 MSTORE PUSH1 0x20 DUP2 KECCAK256 PUSH1 0x1F NOT DUP7 AND SWAP2 JUMPDEST DUP3 DUP2 LT ISZERO PUSH3 0x2D2 JUMPI DUP9 DUP7 ADD MLOAD DUP3 SSTORE SWAP5 DUP5 ADD SWAP5 PUSH1 0x1 SWAP1 SWAP2 ADD SWAP1 DUP5 ADD PUSH3 0x2B1 JUMP JUMPDEST POP DUP6 DUP3 LT ISZERO PUSH3 0x2F1 JUMPI DUP8 DUP6 ADD MLOAD PUSH1 0x0 NOT PUSH1 0x3 DUP9 SWAP1 SHL PUSH1 0xF8 AND SHR NOT AND DUP2 SSTORE JUMPDEST POP POP POP POP POP PUSH1 0x1 SWAP1 DUP2 SHL ADD SWAP1 SSTORE POP JUMP JUMPDEST PUSH2 0x160E DUP1 PUSH3 0x311 PUSH1 0x0 CODECOPY PUSH1 0x0 RETURN INVALID PUSH1 0x80 PUSH1 0x40 MSTORE PUSH1 0x4 CALLDATASIZE LT PUSH2 0x15F JUMPI PUSH1 0x0 CALLDATALOAD PUSH1 0xE0 SHR DUP1 PUSH4 0x95D89B41 GT PUSH2 0xC0 JUMPI DUP1 PUSH4 0xC94C178B GT PUSH2 0x74 JUMPI DUP1 PUSH4 0xDD62ED3E GT PUSH2 0x59 JUMPI DUP1 PUSH4 0xDD62ED3E EQ PUSH2 0x41D JUMPI DUP1 PUSH4 0xE0EBF61A EQ PUSH2 0x463 JUMPI DUP1 PUSH4 0xF3BC21B9 EQ PUSH2 0x483 JUMPI PUSH1 0x0 DUP1 REVERT JUMPDEST DUP1 PUSH4 0xC94C178B EQ PUSH2 0x3CD JUMPI DUP1 PUSH4 0xCA593DB0 EQ PUSH2 0x3FB JUMPI PUSH1 0x0 DUP1 REVERT JUMPDEST DUP1 PUSH4 0xA8376B3C GT PUSH2 0xA5 JUMPI DUP1 PUSH4 0xA8376B3C EQ PUSH2 0x36D JUMPI DUP1 PUSH4 0xA9059CBB EQ PUSH2 0x38D JUMPI DUP1 PUSH4 0xB7C7C4E0 EQ PUSH2 0x3AD JUMPI PUSH1 0x0 DUP1 REVERT JUMPDEST DUP1 PUSH4 0x95D89B41 EQ PUSH2 0x345 JUMPI DUP1 PUSH4 0xA3F81DA0 EQ PUSH2 0x35A JUMPI PUSH1 0x0 DUP1 REVERT JUMPDEST DUP1 PUSH4 0x313CE567 GT PUSH2 0x117 JUMPI DUP1 PUSH4 0x70A08231 GT PUSH2 0xFC JUMPI DUP1 PUSH4 0x70A08231 EQ PUSH2 0x271 JUMPI DUP1 PUSH4 0x8DA5CB5B EQ PUSH2 0x2A7 JUMPI DUP1 PUSH4 0x8FB0A9F4 EQ PUSH2 0x2DF JUMPI PUSH1 0x0 DUP1 REVERT JUMPDEST DUP1 PUSH4 0x313CE567 EQ PUSH2 0x220 JUMPI DUP1 PUSH4 0x31D98237 EQ PUSH2 0x23C JUMPI PUSH1 0x0 DUP1 REVERT JUMPDEST DUP1 PUSH4 0x962EF79 GT PUSH2 0x148 JUMPI DUP1 PUSH4 0x962EF79 EQ PUSH2 0x1BF JUMPI DUP1 PUSH4 0x18160DDD EQ PUSH2 0x1E1 JUMPI DUP1 PUSH4 0x23B872DD EQ PUSH2 0x200 JUMPI PUSH1 0x0 DUP1 REVERT JUMPDEST DUP1 PUSH4 0x6FDDE03 EQ PUSH2 0x164 JUMPI DUP1 PUSH4 0x95EA7B3 EQ PUSH2 0x18F JUMPI JUMPDEST PUSH1 0x0 DUP1 REVERT JUMPDEST CALLVALUE DUP1 ISZERO PUSH2 0x170 JUMPI PUSH1 0x0 DUP1 REVERT JUMPDEST POP PUSH2 0x179 PUSH2 0x4A3 JUMP JUMPDEST PUSH1 0x40 MLOAD PUSH2 0x186 SWAP2 SWAP1 PUSH2 0x11DD JUMP JUMPDEST PUSH1 0x40 MLOAD DUP1 SWAP2 SUB SWAP1 RETURN JUMPDEST CALLVALUE DUP1 ISZERO PUSH2 0x19B JUMPI PUSH1 0x0 DUP1 REVERT JUMPDEST POP PUSH2 0x1AF PUSH2 0x1AA CALLDATASIZE PUSH1 0x4 PUSH2 0x1247 JUMP JUMPDEST PUSH2 0x535 JUMP JUMPDEST PUSH1 0x40 MLOAD SWAP1 ISZERO ISZERO DUP2 MSTORE PUSH1 0x20 ADD PUSH2 0x186 JUMP JUMPDEST CALLVALUE DUP1 ISZERO PUSH2 0x1CB JUMPI PUSH1 0x0 DUP1 REVERT JUMPDEST POP PUSH2 0x1DF PUSH2 0x1DA CALLDATASIZE PUSH1 0x4 PUSH2 0x1271 JUMP JUMPDEST PUSH2 0x54F JUMP JUMPDEST STOP JUMPDEST CALLVALUE DUP1 ISZERO PUSH2 0x1ED JUMPI PUSH1 0x0 DUP1 REVERT JUMPDEST POP PUSH1 0x2 SLOAD JUMPDEST PUSH1 0x40 MLOAD SWAP1 DUP2 MSTORE PUSH1 0x20 ADD PUSH2 0x186 JUMP JUMPDEST CALLVALUE DUP1 ISZERO PUSH2 0x20C JUMPI PUSH1 0x0 DUP1 REVERT JUMPDEST POP PUSH2 0x1AF PUSH2 0x21B CALLDATASIZE PUSH1 0x4 PUSH2 0x128A JUMP JUMPDEST PUSH2 0x627 JUMP JUMPDEST CALLVALUE DUP1 ISZERO PUSH2 0x22C JUMPI PUSH1 0x0 DUP1 REVERT JUMPDEST POP PUSH1 0x40 MLOAD PUSH1 0x12 DUP2 MSTORE PUSH1 0x20 ADD PUSH2 0x186 JUMP JUMPDEST CALLVALUE DUP1 ISZERO PUSH2 0x248 JUMPI PUSH1 0x0 DUP1 REVERT JUMPDEST POP PUSH2 0x25C PUSH2 0x257 CALLDATASIZE PUSH1 0x4 PUSH2 0x12C6 JUMP JUMPDEST PUSH2 0x64B JUMP JUMPDEST PUSH1 0x40 DUP1 MLOAD SWAP3 DUP4 MSTORE PUSH1 0x20 DUP4 ADD SWAP2 SWAP1 SWAP2 MSTORE ADD PUSH2 0x186 JUMP JUMPDEST CALLVALUE DUP1 ISZERO PUSH2 0x27D JUMPI PUSH1 0x0 DUP1 REVERT JUMPDEST POP PUSH2 0x1F2 PUSH2 0x28C CALLDATASIZE PUSH1 0x4 PUSH2 0x12C6 JUMP JUMPDEST PUSH1 0x1 PUSH1 0x1 PUSH1 0xA0 SHL SUB AND PUSH1 0x0 SWAP1 DUP2 MSTORE PUSH1 0x20 DUP2 SWAP1 MSTORE PUSH1 0x40 SWAP1 KECCAK256 SLOAD SWAP1 JUMP JUMPDEST CALLVALUE DUP1 ISZERO PUSH2 0x2B3 JUMPI PUSH1 0x0 DUP1 REVERT JUMPDEST POP PUSH1 0x5 SLOAD PUSH2 0x2C7 SWAP1 PUSH1 0x1 PUSH1 0x1 PUSH1 0xA0 SHL SUB AND DUP2 JUMP JUMPDEST PUSH1 0x40 MLOAD PUSH1 0x1 PUSH1 0x1 PUSH1 0xA0 SHL SUB SWAP1 SWAP2 AND DUP2 MSTORE PUSH1 0x20 ADD PUSH2 0x186 JUMP JUMPDEST CALLVALUE DUP1 ISZERO PUSH2 0x2EB JUMPI PUSH1 0x0 DUP1 REVERT JUMPDEST POP PUSH2 0x325 PUSH2 0x2FA CALLDATASIZE PUSH1 0x4 PUSH2 0x1271 JUMP JUMPDEST PUSH1 0x0 SWAP1 DUP2 MSTORE PUSH1 0xB PUSH1 0x20 MSTORE PUSH1 0x40 SWAP1 KECCAK256 PUSH1 0x1 DUP2 ADD SLOAD PUSH1 0x2 DUP3 ADD SLOAD PUSH1 0x3 DUP4 ADD SLOAD PUSH1 0x4 SWAP1 SWAP4 ADD SLOAD SWAP2 SWAP4 SWAP1 SWAP3 SWAP2 SWAP1 JUMP JUMPDEST PUSH1 0x40 DUP1 MLOAD SWAP5 DUP6 MSTORE PUSH1 0x20 DUP6 ADD SWAP4 SWAP1 SWAP4 MSTORE SWAP2 DUP4 ADD MSTORE PUSH1 0x60 DUP3 ADD MSTORE PUSH1 0x80 ADD PUSH2 0x186 JUMP JUMPDEST CALLVALUE DUP1 ISZERO PUSH2 0x351 JUMPI PUSH1 0x0 DUP1 REVERT JUMPDEST POP PUSH2 0x179 PUSH2 0x758 JUMP JUMPDEST PUSH2 0x1DF PUSH2 0x368 CALLDATASIZE PUSH1 0x4 PUSH2 0x1271 JUMP JUMPDEST PUSH2 0x767 JUMP JUMPDEST CALLVALUE DUP1 ISZERO PUSH2 0x379 JUMPI PUSH1 0x0 DUP1 REVERT JUMPDEST POP PUSH2 0x1DF PUSH2 0x388 CALLDATASIZE PUSH1 0x4 PUSH2 0x12E8 JUMP JUMPDEST PUSH2 0x984 JUMP JUMPDEST CALLVALUE DUP1 ISZERO PUSH2 0x399 JUMPI PUSH1 0x0 DUP1 REVERT JUMPDEST POP PUSH2 0x1AF PUSH2 0x3A8 CALLDATASIZE PUSH1 0x4 PUSH2 0x1247 JUMP JUMPDEST PUSH2 0xAE1 JUMP JUMPDEST CALLVALUE DUP1 ISZERO PUSH2 0x3B9 JUMPI PUSH1 0x0 DUP1 REVERT JUMPDEST POP PUSH2 0x1DF PUSH2 0x3C8 CALLDATASIZE PUSH1 0x4 PUSH2 0x130A JUMP JUMPDEST PUSH2 0xAEF JUMP JUMPDEST CALLVALUE DUP1 ISZERO PUSH2 0x3D9 JUMPI PUSH1 0x0 DUP1 REVERT JUMPDEST POP PUSH2 0x3ED PUSH2 0x3E8 CALLDATASIZE PUSH1 0x4 PUSH2 0x1271 JUMP JUMPDEST PUSH2 0xC25 JUMP JUMPDEST PUSH1 0x40 MLOAD PUSH2 0x186 SWAP3 SWAP2 SWAP1 PUSH2 0x1380 JUMP JUMPDEST CALLVALUE DUP1 ISZERO PUSH2 0x407 JUMPI PUSH1 0x0 DUP1 REVERT JUMPDEST POP PUSH2 0x410 PUSH2 0xD8A JUMP JUMPDEST PUSH1 0x40 MLOAD PUSH2 0x186 SWAP2 SWAP1 PUSH2 0x13D7 JUMP JUMPDEST CALLVALUE DUP1 ISZERO PUSH2 0x429 JUMPI PUSH1 0x0 DUP1 REVERT JUMPDEST POP PUSH2 0x1F2 PUSH2 0x438 CALLDATASIZE PUSH1 0x4 PUSH2 0x13EA JUMP JUMPDEST PUSH1 0x1 PUSH1 0x1 PUSH1 0xA0 SHL SUB SWAP2 DUP3 AND PUSH1 0x0 SWAP1 DUP2 MSTORE PUSH1 0x1 PUSH1 0x20 SWAP1 DUP2 MSTORE PUSH1 0x40 DUP1 DUP4 KECCAK256 SWAP4 SWAP1 SWAP5 AND DUP3 MSTORE SWAP2 SWAP1 SWAP2 MSTORE KECCAK256 SLOAD SWAP1 JUMP JUMPDEST CALLVALUE DUP1 ISZERO PUSH2 0x46F JUMPI PUSH1 0x0 DUP1 REVERT JUMPDEST POP PUSH2 0x1F2 PUSH2 0x47E CALLDATASIZE PUSH1 0x4 PUSH2 0x1271 JUMP JUMPDEST PUSH2 0xDEB JUMP JUMPDEST CALLVALUE DUP1 ISZERO PUSH2 0x48F JUMPI PUSH1 0x0 DUP1 REVERT JUMPDEST POP PUSH2 0x1F2 PUSH2 0x49E CALLDATASIZE PUSH1 0x4 PUSH2 0x1271 JUMP JUMPDEST PUSH2 0xE9B JUMP JUMPDEST PUSH1 0x60 PUSH1 0x3 DUP1 SLOAD PUSH2 0x4B2 SWAP1 PUSH2 0x141D JUMP JUMPDEST DUP1 PUSH1 0x1F ADD PUSH1 0x20 DUP1 SWAP2 DIV MUL PUSH1 0x20 ADD PUSH1 0x40 MLOAD SWAP1 DUP2 ADD PUSH1 0x40 MSTORE DUP1 SWAP3 SWAP2 SWAP1 DUP2 DUP2 MSTORE PUSH1 0x20 ADD DUP3 DUP1 SLOAD PUSH2 0x4DE SWAP1 PUSH2 0x141D JUMP JUMPDEST DUP1 ISZERO PUSH2 0x52B JUMPI DUP1 PUSH1 0x1F LT PUSH2 0x500 JUMPI PUSH2 0x100 DUP1 DUP4 SLOAD DIV MUL DUP4 MSTORE SWAP2 PUSH1 0x20 ADD SWAP2 PUSH2 0x52B JUMP JUMPDEST DUP3 ADD SWAP2 SWAP1 PUSH1 0x0 MSTORE PUSH1 0x20 PUSH1 0x0 KECCAK256 SWAP1 JUMPDEST DUP2 SLOAD DUP2 MSTORE SWAP1 PUSH1 0x1 ADD SWAP1 PUSH1 0x20 ADD DUP1 DUP4 GT PUSH2 0x50E JUMPI DUP3 SWAP1 SUB PUSH1 0x1F AND DUP3 ADD SWAP2 JUMPDEST POP POP POP POP POP SWAP1 POP SWAP1 JUMP JUMPDEST PUSH1 0x0 CALLER PUSH2 0x543 DUP2 DUP6 DUP6 PUSH2 0xEBE JUMP JUMPDEST PUSH1 0x1 SWAP2 POP POP JUMPDEST SWAP3 SWAP2 POP POP JUMP JUMPDEST PUSH1 0x0 PUSH2 0x55A DUP3 PUSH2 0xDEB JUMP JUMPDEST SWAP1 POP PUSH1 0x0 DUP2 GT PUSH2 0x5B1 JUMPI PUSH1 0x40 MLOAD PUSH3 0x461BCD PUSH1 0xE5 SHL DUP2 MSTORE PUSH1 0x20 PUSH1 0x4 DUP3 ADD MSTORE PUSH1 0xA PUSH1 0x24 DUP3 ADD MSTORE PUSH32 0x6E6F207265776172647300000000000000000000000000000000000000000000 PUSH1 0x44 DUP3 ADD MSTORE PUSH1 0x64 ADD JUMPDEST PUSH1 0x40 MLOAD DUP1 SWAP2 SUB SWAP1 REVERT JUMPDEST CALLER PUSH1 0x0 SWAP1 DUP2 MSTORE PUSH1 0x8 PUSH1 0x20 MSTORE PUSH1 0x40 SWAP1 KECCAK256 SLOAD PUSH1 0xFF AND ISZERO PUSH2 0x5E3 JUMPI PUSH1 0x64 PUSH2 0x5D6 DUP3 PUSH1 0x78 PUSH2 0x146D JUMP JUMPDEST PUSH2 0x5E0 SWAP2 SWAP1 PUSH2 0x1484 JUMP JUMPDEST SWAP1 POP JUMPDEST PUSH1 0x0 DUP3 DUP2 MSTORE PUSH1 0xB PUSH1 0x20 SWAP1 DUP2 MSTORE PUSH1 0x40 DUP1 DUP4 KECCAK256 CALLER DUP1 DUP6 MSTORE PUSH1 0x6 SWAP1 SWAP2 ADD SWAP1 SWAP3 MSTORE SWAP1 SWAP2 KECCAK256 TIMESTAMP PUSH1 0x1 SWAP1 SWAP2 ADD SSTORE PUSH1 0x5 SLOAD PUSH2 0x623 SWAP2 PUSH1 0x1 PUSH1 0x1 PUSH1 0xA0 SHL SUB SWAP1 SWAP2 AND SWAP1 DUP4 PUSH2 0xECB JUMP JUMPDEST POP POP JUMP JUMPDEST PUSH1 0x0 CALLER PUSH2 0x635 DUP6 DUP3 DUP6 PUSH2 0xFF5 JUMP JUMPDEST PUSH2 0x640 DUP6 DUP6 DUP6 PUSH2 0x1073 JUMP JUMPDEST POP PUSH1 0x1 SWAP5 SWAP4 POP POP POP POP JUMP JUMPDEST PUSH1 0x0 DUP1 PUSH1 0x0 DUP1 JUMPDEST PUSH1 0xA SLOAD DUP2 LT ISZERO PUSH2 0x737 JUMPI PUSH1 0x0 DUP2 DUP2 MSTORE PUSH1 0xB PUSH1 0x20 SWAP1 DUP2 MSTORE PUSH1 0x40 DUP1 DUP4 KECCAK256 PUSH1 0x1 PUSH1 0x1 PUSH1 0xA0 SHL SUB DUP10 AND DUP5 MSTORE PUSH1 0x6 ADD SWAP1 SWAP2 MSTORE DUP2 KECCAK256 PUSH1 0x1 ADD SLOAD PUSH2 0x68F SWAP1 TIMESTAMP PUSH2 0x14A6 JUMP JUMPDEST PUSH1 0x0 DUP4 DUP2 MSTORE PUSH1 0xB PUSH1 0x20 MSTORE PUSH1 0x40 DUP2 KECCAK256 PUSH1 0x4 ADD SLOAD SWAP2 SWAP3 POP SWAP1 PUSH2 0x6AF SWAP1 DUP4 PUSH2 0x1484 JUMP JUMPDEST PUSH1 0x0 DUP5 DUP2 MSTORE PUSH1 0xB PUSH1 0x20 MSTORE PUSH1 0x40 DUP2 KECCAK256 PUSH1 0x2 ADD SLOAD SWAP2 SWAP3 POP SWAP1 PUSH2 0x6D0 SWAP1 DUP4 SWAP1 PUSH2 0x146D JUMP JUMPDEST PUSH1 0x0 DUP6 DUP2 MSTORE PUSH1 0xB PUSH1 0x20 SWAP1 DUP2 MSTORE PUSH1 0x40 DUP1 DUP4 KECCAK256 PUSH1 0x1 PUSH1 0x1 PUSH1 0xA0 SHL SUB DUP14 AND DUP5 MSTORE PUSH1 0x6 ADD SWAP1 SWAP2 MSTORE DUP2 KECCAK256 SLOAD SWAP2 SWAP3 POP SWAP1 PUSH1 0x64 SWAP1 PUSH2 0x708 SWAP1 DUP5 SWAP1 PUSH2 0x146D JUMP JUMPDEST PUSH2 0x712 SWAP2 SWAP1 PUSH2 0x1484 JUMP JUMPDEST SWAP1 POP PUSH2 0x71E DUP2 DUP8 PUSH2 0x14B9 JUMP JUMPDEST SWAP6 POP POP POP POP POP DUP1 DUP1 PUSH2 0x72F SWAP1 PUSH2 0x14CC JUMP JUMPDEST SWAP2 POP POP PUSH2 0x652 JUMP JUMPDEST POP PUSH1 0x1 PUSH1 0x1 PUSH1 0xA0 SHL SUB SWAP1 SWAP4 AND PUSH1 0x0 SWAP1 DUP2 MSTORE PUSH1 0x9 PUSH1 0x20 MSTORE PUSH1 0x40 SWAP1 KECCAK256 SLOAD SWAP4 SWAP2 POP POP JUMP JUMPDEST PUSH1 0x60 PUSH1 0x4 DUP1 SLOAD PUSH2 0x4B2 SWAP1 PUSH2 0x141D JUMP JUMPDEST PUSH1 0x0 DUP2 DUP2 MSTORE PUSH1 0xB PUSH1 0x20 MSTORE PUSH1 0x40 SWAP1 KECCAK256 PUSH1 0x3 ADD SLOAD CALLVALUE GT PUSH2 0x7C7 JUMPI PUSH1 0x40 MLOAD PUSH3 0x461BCD PUSH1 0xE5 SHL DUP2 MSTORE PUSH1 0x20 PUSH1 0x4 DUP3 ADD MSTORE PUSH1 0x14 PUSH1 0x24 DUP3 ADD MSTORE PUSH32 0x496E73756666696369656E74204465706F736974000000000000000000000000 PUSH1 0x44 DUP3 ADD MSTORE PUSH1 0x64 ADD PUSH2 0x5A8 JUMP JUMPDEST PUSH1 0x0 DUP2 DUP2 MSTORE PUSH1 0xB PUSH1 0x20 MSTORE PUSH1 0x40 SWAP1 KECCAK256 PUSH1 0x5 ADD SLOAD PUSH2 0x7E3 SWAP1 CALLVALUE PUSH2 0x14B9 JUMP JUMPDEST PUSH1 0x0 DUP3 DUP2 MSTORE PUSH1 0xB PUSH1 0x20 MSTORE PUSH1 0x40 SWAP1 KECCAK256 PUSH1 0x1 ADD SLOAD LT ISZERO PUSH2 0x843 JUMPI PUSH1 0x40 MLOAD PUSH3 0x461BCD PUSH1 0xE5 SHL DUP2 MSTORE PUSH1 0x20 PUSH1 0x4 DUP3 ADD MSTORE PUSH1 0x12 PUSH1 0x24 DUP3 ADD MSTORE PUSH32 0x6D6178206C696D69742065786365656465640000000000000000000000000000 PUSH1 0x44 DUP3 ADD MSTORE PUSH1 0x64 ADD PUSH2 0x5A8 JUMP JUMPDEST PUSH1 0x0 DUP2 DUP2 MSTORE PUSH1 0xB PUSH1 0x20 MSTORE PUSH1 0x40 DUP2 KECCAK256 PUSH1 0x5 ADD DUP1 SLOAD CALLVALUE SWAP3 SWAP1 PUSH2 0x864 SWAP1 DUP5 SWAP1 PUSH2 0x14B9 JUMP JUMPDEST SWAP1 SWAP2 SSTORE POP POP CALLER PUSH1 0x0 SWAP1 DUP2 MSTORE PUSH1 0x9 PUSH1 0x20 MSTORE PUSH1 0x40 DUP2 KECCAK256 DUP1 SLOAD CALLVALUE SWAP3 SWAP1 PUSH2 0x888 SWAP1 DUP5 SWAP1 PUSH2 0x14B9 JUMP JUMPDEST SWAP1 SWAP2 SSTORE POP POP PUSH1 0x0 DUP2 DUP2 MSTORE PUSH1 0xB PUSH1 0x20 DUP2 DUP2 MSTORE PUSH1 0x40 DUP1 DUP5 KECCAK256 CALLER DUP1 DUP7 MSTORE PUSH1 0x6 DUP3 ADD DUP5 MSTORE DUP3 DUP7 KECCAK256 CALLVALUE DUP2 SSTORE TIMESTAMP PUSH1 0x1 SWAP2 DUP3 ADD SSTORE DUP3 SLOAD DUP1 DUP9 MSTORE PUSH1 0x7 DUP5 ADD DUP7 MSTORE SWAP4 DUP8 KECCAK256 DUP1 SLOAD PUSH20 0xFFFFFFFFFFFFFFFFFFFFFFFFFFFFFFFFFFFFFFFF NOT AND SWAP1 SWAP3 OR SWAP1 SWAP2 SSTORE DUP7 DUP7 MSTORE SWAP4 SWAP1 SWAP3 MSTORE DUP2 SLOAD SWAP1 SWAP4 SWAP1 PUSH2 0x8F9 SWAP1 DUP5 SWAP1 PUSH2 0x14B9 JUMP JUMPDEST SWAP1 SWAP2 SSTORE POP POP PUSH1 0x6 SLOAD CALLER PUSH1 0x0 SWAP1 DUP2 MSTORE PUSH1 0x9 PUSH1 0x20 MSTORE PUSH1 0x40 SWAP1 KECCAK256 SLOAD GT ISZERO PUSH2 0x623 JUMPI CALLER PUSH1 0x0 DUP2 DUP2 MSTORE PUSH1 0x8 PUSH1 0x20 MSTORE PUSH1 0x40 DUP2 KECCAK256 DUP1 SLOAD PUSH1 0xFF NOT AND PUSH1 0x1 SWAP1 DUP2 OR SWAP1 SWAP2 SSTORE PUSH1 0x7 DUP1 SLOAD SWAP2 DUP3 ADD DUP2 SSTORE SWAP1 SWAP2 MSTORE PUSH32 0xA66CC928B5EDB82AF9BD49922954155AB7B0942694BEA4CE44661D9A8736C688 ADD DUP1 SLOAD PUSH20 0xFFFFFFFFFFFFFFFFFFFFFFFFFFFFFFFFFFFFFFFF NOT AND SWAP1 SWAP2 OR SWAP1 SSTORE POP POP JUMP JUMPDEST PUSH1 0x0 DUP3 DUP2 MSTORE PUSH1 0xB PUSH1 0x20 SWAP1 DUP2 MSTORE PUSH1 0x40 DUP1 DUP4 KECCAK256 CALLER DUP5 MSTORE PUSH1 0x6 ADD SWAP1 SWAP2 MSTORE SWAP1 KECCAK256 SLOAD PUSH2 0x9ED JUMPI PUSH1 0x40 MLOAD PUSH3 0x461BCD PUSH1 0xE5 SHL DUP2 MSTORE PUSH1 0x20 PUSH1 0x4 DUP3 ADD MSTORE PUSH1 0x12 PUSH1 0x24 DUP3 ADD MSTORE PUSH32 0x696E73756666696369656E742066756E64730000000000000000000000000000 PUSH1 0x44 DUP3 ADD MSTORE PUSH1 0x64 ADD PUSH2 0x5A8 JUMP JUMPDEST PUSH1 0x0 DUP3 DUP2 MSTORE PUSH1 0xB PUSH1 0x20 SWAP1 DUP2 MSTORE PUSH1 0x40 DUP1 DUP4 KECCAK256 CALLER DUP5 MSTORE PUSH1 0x6 ADD SWAP1 SWAP2 MSTORE DUP2 KECCAK256 DUP1 SLOAD DUP4 SWAP3 SWAP1 PUSH2 0xA19 SWAP1 DUP5 SWAP1 PUSH2 0x14A6 JUMP JUMPDEST SWAP1 SWAP2 SSTORE POP POP PUSH1 0x0 DUP3 DUP2 MSTORE PUSH1 0xB PUSH1 0x20 MSTORE PUSH1 0x40 DUP2 KECCAK256 PUSH1 0x5 ADD DUP1 SLOAD DUP4 SWAP3 SWAP1 PUSH2 0xA3F SWAP1 DUP5 SWAP1 PUSH2 0x14A6 JUMP JUMPDEST SWAP1 SWAP2 SSTORE POP POP CALLER PUSH1 0x0 SWAP1 DUP2 MSTORE PUSH1 0x9 PUSH1 0x20 MSTORE PUSH1 0x40 DUP2 KECCAK256 DUP1 SLOAD DUP4 SWAP3 SWAP1 PUSH2 0xA63 SWAP1 DUP5 SWAP1 PUSH2 0x14A6 JUMP JUMPDEST SWAP1 SWAP2 SSTORE POP POP PUSH1 0x0 DUP3 DUP2 MSTORE PUSH1 0xB PUSH1 0x20 SWAP1 DUP2 MSTORE PUSH1 0x40 DUP1 DUP4 KECCAK256 CALLER DUP5 MSTORE PUSH1 0x6 ADD SWAP1 SWAP2 MSTORE DUP2 KECCAK256 SLOAD SWAP1 SUB PUSH2 0xAAF JUMPI PUSH1 0x0 DUP3 DUP2 MSTORE PUSH1 0xB PUSH1 0x20 SWAP1 DUP2 MSTORE PUSH1 0x40 DUP1 DUP4 KECCAK256 CALLER DUP5 MSTORE PUSH1 0x6 ADD SWAP1 SWAP2 MSTORE SWAP1 KECCAK256 TIMESTAMP PUSH1 0x1 SWAP1 SWAP2 ADD SSTORE JUMPDEST PUSH1 0x40 MLOAD CALLER SWAP1 DUP3 ISZERO PUSH2 0x8FC MUL SWAP1 DUP4 SWAP1 PUSH1 0x0 DUP2 DUP2 DUP2 DUP6 DUP9 DUP9 CALL SWAP4 POP POP POP POP ISZERO DUP1 ISZERO PUSH2 0xADC JUMPI RETURNDATASIZE PUSH1 0x0 DUP1 RETURNDATACOPY RETURNDATASIZE PUSH1 0x0 REVERT JUMPDEST POP POP POP JUMP JUMPDEST PUSH1 0x0 CALLER PUSH2 0x543 DUP2 DUP6 DUP6 PUSH2 0x1073 JUMP JUMPDEST PUSH1 0x5 SLOAD PUSH1 0x1 PUSH1 0x1 PUSH1 0xA0 SHL SUB AND CALLER EQ PUSH2 0xB53 JUMPI PUSH1 0x40 MLOAD PUSH3 0x461BCD PUSH1 0xE5 SHL DUP2 MSTORE PUSH1 0x20 PUSH1 0x4 DUP3 ADD MSTORE PUSH1 0x21 PUSH1 0x24 DUP3 ADD MSTORE PUSH32 0x4F6E6C79206F776E65722063616E2063616C6C20746869732066756E6374696F PUSH1 0x44 DUP3 ADD MSTORE PUSH1 0x37 PUSH1 0xF9 SHL PUSH1 0x64 DUP3 ADD MSTORE PUSH1 0x84 ADD PUSH2 0x5A8 JUMP JUMPDEST DUP4 DUP3 LT PUSH2 0xBA2 JUMPI PUSH1 0x40 MLOAD PUSH3 0x461BCD PUSH1 0xE5 SHL DUP2 MSTORE PUSH1 0x20 PUSH1 0x4 DUP3 ADD MSTORE PUSH1 0x1B PUSH1 0x24 DUP3 ADD MSTORE PUSH32 0x6D696E2073686F756C64206265206C657373207468616E206D61780000000000 PUSH1 0x44 DUP3 ADD MSTORE PUSH1 0x64 ADD PUSH2 0x5A8 JUMP JUMPDEST PUSH2 0xBC1 CALLER PUSH2 0xBB2 PUSH1 0x2 PUSH1 0xA PUSH2 0x15C9 JUMP JUMPDEST PUSH2 0xBBC SWAP1 DUP8 PUSH2 0x146D JUMP JUMPDEST PUSH2 0x10D2 JUMP JUMPDEST PUSH1 0xA DUP1 SLOAD PUSH1 0x0 SWAP1 DUP2 MSTORE PUSH1 0xB PUSH1 0x20 MSTORE PUSH1 0x40 DUP1 DUP3 KECCAK256 PUSH1 0x1 ADD DUP8 SWAP1 SSTORE DUP3 SLOAD DUP3 MSTORE DUP1 DUP3 KECCAK256 PUSH1 0x2 ADD DUP7 SWAP1 SSTORE DUP3 SLOAD DUP3 MSTORE DUP1 DUP3 KECCAK256 PUSH1 0x3 ADD DUP6 SWAP1 SSTORE DUP3 SLOAD DUP3 MSTORE DUP1 DUP3 KECCAK256 PUSH1 0x4 ADD DUP5 SWAP1 SSTORE DUP3 SLOAD DUP3 MSTORE DUP2 KECCAK256 PUSH1 0x5 ADD DUP2 SWAP1 SSTORE DUP2 SLOAD SWAP2 SWAP1 PUSH2 0xC1A DUP4 PUSH2 0x14CC JUMP JUMPDEST SWAP2 SWAP1 POP SSTORE POP POP POP POP POP JUMP JUMPDEST PUSH1 0x0 DUP2 DUP2 MSTORE PUSH1 0xB PUSH1 0x20 MSTORE PUSH1 0x40 DUP2 KECCAK256 SLOAD PUSH1 0x60 SWAP2 DUP3 SWAP2 SWAP1 DUP2 PUSH8 0xFFFFFFFFFFFFFFFF DUP2 GT ISZERO PUSH2 0xC53 JUMPI PUSH2 0xC53 PUSH2 0x15D5 JUMP JUMPDEST PUSH1 0x40 MLOAD SWAP1 DUP1 DUP3 MSTORE DUP1 PUSH1 0x20 MUL PUSH1 0x20 ADD DUP3 ADD PUSH1 0x40 MSTORE DUP1 ISZERO PUSH2 0xC7C JUMPI DUP2 PUSH1 0x20 ADD PUSH1 0x20 DUP3 MUL DUP1 CALLDATASIZE DUP4 CALLDATACOPY ADD SWAP1 POP JUMPDEST POP SWAP1 POP PUSH1 0x0 DUP3 PUSH8 0xFFFFFFFFFFFFFFFF DUP2 GT ISZERO PUSH2 0xC9A JUMPI PUSH2 0xC9A PUSH2 0x15D5 JUMP JUMPDEST PUSH1 0x40 MLOAD SWAP1 DUP1 DUP3 MSTORE DUP1 PUSH1 0x20 MUL PUSH1 0x20 ADD DUP3 ADD PUSH1 0x40 MSTORE DUP1 ISZERO PUSH2 0xCC3 JUMPI DUP2 PUSH1 0x20 ADD PUSH1 0x20 DUP3 MUL DUP1 CALLDATASIZE DUP4 CALLDATACOPY ADD SWAP1 POP JUMPDEST POP SWAP1 POP PUSH1 0x0 JUMPDEST DUP4 DUP2 LT ISZERO PUSH2 0xD7E JUMPI PUSH1 0x0 DUP8 DUP2 MSTORE PUSH1 0xB PUSH1 0x20 SWAP1 DUP2 MSTORE PUSH1 0x40 DUP1 DUP4 KECCAK256 DUP5 DUP5 MSTORE PUSH1 0x7 ADD SWAP1 SWAP2 MSTORE SWAP1 KECCAK256 SLOAD DUP4 MLOAD PUSH1 0x1 PUSH1 0x1 PUSH1 0xA0 SHL SUB SWAP1 SWAP2 AND SWAP1 DUP2 SWAP1 DUP6 SWAP1 DUP5 SWAP1 DUP2 LT PUSH2 0xD10 JUMPI PUSH2 0xD10 PUSH2 0x15EB JUMP JUMPDEST PUSH1 0x1 PUSH1 0x1 PUSH1 0xA0 SHL SUB SWAP3 DUP4 AND PUSH1 0x20 SWAP2 DUP3 MUL SWAP3 SWAP1 SWAP3 ADD DUP2 ADD SWAP2 SWAP1 SWAP2 MSTORE PUSH1 0x0 DUP11 DUP2 MSTORE PUSH1 0xB DUP3 MSTORE PUSH1 0x40 DUP1 DUP3 KECCAK256 SWAP4 DUP6 AND DUP3 MSTORE PUSH1 0x6 SWAP1 SWAP4 ADD SWAP1 SWAP2 MSTORE KECCAK256 SLOAD DUP4 MLOAD DUP2 SWAP1 DUP6 SWAP1 DUP6 SWAP1 DUP2 LT PUSH2 0xD5D JUMPI PUSH2 0xD5D PUSH2 0x15EB JUMP JUMPDEST PUSH1 0x20 MUL PUSH1 0x20 ADD ADD DUP2 DUP2 MSTORE POP POP POP POP DUP1 DUP1 PUSH2 0xD76 SWAP1 PUSH2 0x14CC JUMP JUMPDEST SWAP2 POP POP PUSH2 0xCC9 JUMP JUMPDEST POP SWAP1 SWAP6 SWAP1 SWAP5 POP SWAP3 POP POP POP JUMP JUMPDEST PUSH1 0x60 PUSH1 0x7 DUP1 SLOAD DUP1 PUSH1 0x20 MUL PUSH1 0x20 ADD PUSH1 0x40 MLOAD SWAP1 DUP2 ADD PUSH1 0x40 MSTORE DUP1 SWAP3 SWAP2 SWAP1 DUP2 DUP2 MSTORE PUSH1 0x20 ADD DUP3 DUP1 SLOAD DUP1 ISZERO PUSH2 0x52B JUMPI PUSH1 0x20 MUL DUP3 ADD SWAP2 SWAP1 PUSH1 0x0 MSTORE PUSH1 0x20 PUSH1 0x0 KECCAK256 SWAP1 JUMPDEST DUP2 SLOAD PUSH1 0x1 PUSH1 0x1 PUSH1 0xA0 SHL SUB AND DUP2 MSTORE PUSH1 0x1 SWAP1 SWAP2 ADD SWAP1 PUSH1 0x20 ADD DUP1 DUP4 GT PUSH2 0xDC4 JUMPI POP POP POP POP POP SWAP1 POP SWAP1 JUMP JUMPDEST PUSH1 0x0 DUP2 DUP2 MSTORE PUSH1 0xB PUSH1 0x20 SWAP1 DUP2 MSTORE PUSH1 0x40 DUP1 DUP4 KECCAK256 CALLER DUP5 MSTORE PUSH1 0x6 ADD SWAP1 SWAP2 MSTORE DUP2 KECCAK256 PUSH1 0x1 ADD SLOAD DUP2 SWAP1 PUSH2 0xE17 SWAP1 TIMESTAMP PUSH2 0x14A6 JUMP JUMPDEST PUSH1 0x0 DUP5 DUP2 MSTORE PUSH1 0xB PUSH1 0x20 MSTORE PUSH1 0x40 DUP2 KECCAK256 PUSH1 0x4 ADD SLOAD SWAP2 SWAP3 POP SWAP1 PUSH2 0xE37 SWAP1 DUP4 PUSH2 0x1484 JUMP JUMPDEST PUSH1 0x0 DUP6 DUP2 MSTORE PUSH1 0xB PUSH1 0x20 MSTORE PUSH1 0x40 DUP2 KECCAK256 PUSH1 0x2 ADD SLOAD SWAP2 SWAP3 POP SWAP1 PUSH2 0xE58 SWAP1 DUP4 SWAP1 PUSH2 0x146D JUMP JUMPDEST PUSH1 0x0 DUP7 DUP2 MSTORE PUSH1 0xB PUSH1 0x20 SWAP1 DUP2 MSTORE PUSH1 0x40 DUP1 DUP4 KECCAK256 CALLER DUP5 MSTORE PUSH1 0x6 ADD SWAP1 SWAP2 MSTORE DUP2 KECCAK256 SLOAD SWAP2 SWAP3 POP SWAP1 PUSH1 0x64 SWAP1 PUSH2 0xE87 SWAP1 DUP5 SWAP1 PUSH2 0x146D JUMP JUMPDEST PUSH2 0xE91 SWAP2 SWAP1 PUSH2 0x1484 JUMP JUMPDEST SWAP7 SWAP6 POP POP POP POP POP POP JUMP JUMPDEST PUSH1 0x0 DUP2 DUP2 MSTORE PUSH1 0xB PUSH1 0x20 MSTORE PUSH1 0x40 DUP2 KECCAK256 PUSH1 0x5 DUP2 ADD SLOAD PUSH1 0x1 SWAP1 SWAP2 ADD SLOAD PUSH2 0x549 SWAP2 SWAP1 PUSH2 0x14A6 JUMP JUMPDEST PUSH2 0xADC DUP4 DUP4 DUP4 PUSH1 0x1 PUSH2 0x1108 JUMP JUMPDEST PUSH1 0x1 PUSH1 0x1 PUSH1 0xA0 SHL SUB DUP4 AND PUSH2 0xEF6 JUMPI DUP1 PUSH1 0x2 PUSH1 0x0 DUP3 DUP3 SLOAD PUSH2 0xEEB SWAP2 SWAP1 PUSH2 0x14B9 JUMP JUMPDEST SWAP1 SWAP2 SSTORE POP PUSH2 0xF68 SWAP1 POP JUMP JUMPDEST PUSH1 0x1 PUSH1 0x1 PUSH1 0xA0 SHL SUB DUP4 AND PUSH1 0x0 SWAP1 DUP2 MSTORE PUSH1 0x20 DUP2 SWAP1 MSTORE PUSH1 0x40 SWAP1 KECCAK256 SLOAD DUP2 DUP2 LT ISZERO PUSH2 0xF49 JUMPI PUSH1 0x40 MLOAD PUSH4 0x391434E3 PUSH1 0xE2 SHL DUP2 MSTORE PUSH1 0x1 PUSH1 0x1 PUSH1 0xA0 SHL SUB DUP6 AND PUSH1 0x4 DUP3 ADD MSTORE PUSH1 0x24 DUP2 ADD DUP3 SWAP1 MSTORE PUSH1 0x44 DUP2 ADD DUP4 SWAP1 MSTORE PUSH1 0x64 ADD PUSH2 0x5A8 JUMP JUMPDEST PUSH1 0x1 PUSH1 0x1 PUSH1 0xA0 SHL SUB DUP5 AND PUSH1 0x0 SWAP1 DUP2 MSTORE PUSH1 0x20 DUP2 SWAP1 MSTORE PUSH1 0x40 SWAP1 KECCAK256 SWAP1 DUP3 SWAP1 SUB SWAP1 SSTORE JUMPDEST PUSH1 0x1 PUSH1 0x1 PUSH1 0xA0 SHL SUB DUP3 AND PUSH2 0xF84 JUMPI PUSH1 0x2 DUP1 SLOAD DUP3 SWAP1 SUB SWAP1 SSTORE PUSH2 0xFA3 JUMP JUMPDEST PUSH1 0x1 PUSH1 0x1 PUSH1 0xA0 SHL SUB DUP3 AND PUSH1 0x0 SWAP1 DUP2 MSTORE PUSH1 0x20 DUP2 SWAP1 MSTORE PUSH1 0x40 SWAP1 KECCAK256 DUP1 SLOAD DUP3 ADD SWAP1 SSTORE JUMPDEST DUP2 PUSH1 0x1 PUSH1 0x1 PUSH1 0xA0 SHL SUB AND DUP4 PUSH1 0x1 PUSH1 0x1 PUSH1 0xA0 SHL SUB AND PUSH32 0xDDF252AD1BE2C89B69C2B068FC378DAA952BA7F163C4A11628F55A4DF523B3EF DUP4 PUSH1 0x40 MLOAD PUSH2 0xFE8 SWAP2 DUP2 MSTORE PUSH1 0x20 ADD SWAP1 JUMP JUMPDEST PUSH1 0x40 MLOAD DUP1 SWAP2 SUB SWAP1 LOG3 POP POP POP JUMP JUMPDEST PUSH1 0x1 PUSH1 0x1 PUSH1 0xA0 SHL SUB DUP4 DUP2 AND PUSH1 0x0 SWAP1 DUP2 MSTORE PUSH1 0x1 PUSH1 0x20 SWAP1 DUP2 MSTORE PUSH1 0x40 DUP1 DUP4 KECCAK256 SWAP4 DUP7 AND DUP4 MSTORE SWAP3 SWAP1 MSTORE KECCAK256 SLOAD PUSH1 0x0 NOT DUP2 EQ PUSH2 0x106D JUMPI DUP2 DUP2 LT ISZERO PUSH2 0x105E JUMPI PUSH1 0x40 MLOAD PUSH4 0x7DC7A0D9 PUSH1 0xE1 SHL DUP2 MSTORE PUSH1 0x1 PUSH1 0x1 PUSH1 0xA0 SHL SUB DUP5 AND PUSH1 0x4 DUP3 ADD MSTORE PUSH1 0x24 DUP2 ADD DUP3 SWAP1 MSTORE PUSH1 0x44 DUP2 ADD DUP4 SWAP1 MSTORE PUSH1 0x64 ADD PUSH2 0x5A8 JUMP JUMPDEST PUSH2 0x106D DUP5 DUP5 DUP5 DUP5 SUB PUSH1 0x0 PUSH2 0x1108 JUMP JUMPDEST POP POP POP POP JUMP JUMPDEST PUSH1 0x1 PUSH1 0x1 PUSH1 0xA0 SHL SUB DUP4 AND PUSH2 0x109D JUMPI PUSH1 0x40 MLOAD PUSH4 0x4B637E8F PUSH1 0xE1 SHL DUP2 MSTORE PUSH1 0x0 PUSH1 0x4 DUP3 ADD MSTORE PUSH1 0x24 ADD PUSH2 0x5A8 JUMP JUMPDEST PUSH1 0x1 PUSH1 0x1 PUSH1 0xA0 SHL SUB DUP3 AND PUSH2 0x10C7 JUMPI PUSH1 0x40 MLOAD PUSH4 0xEC442F05 PUSH1 0xE0 SHL DUP2 MSTORE PUSH1 0x0 PUSH1 0x4 DUP3 ADD MSTORE PUSH1 0x24 ADD PUSH2 0x5A8 JUMP JUMPDEST PUSH2 0xADC DUP4 DUP4 DUP4 PUSH2 0xECB JUMP JUMPDEST PUSH1 0x1 PUSH1 0x1 PUSH1 0xA0 SHL SUB DUP3 AND PUSH2 0x10FC JUMPI PUSH1 0x40 MLOAD PUSH4 0xEC442F05 PUSH1 0xE0 SHL DUP2 MSTORE PUSH1 0x0 PUSH1 0x4 DUP3 ADD MSTORE PUSH1 0x24 ADD PUSH2 0x5A8 JUMP JUMPDEST PUSH2 0x623 PUSH1 0x0 DUP4 DUP4 PUSH2 0xECB JUMP JUMPDEST PUSH1 0x1 PUSH1 0x1 PUSH1 0xA0 SHL SUB DUP5 AND PUSH2 0x1132 JUMPI PUSH1 0x40 MLOAD PUSH4 0xE602DF05 PUSH1 0xE0 SHL DUP2 MSTORE PUSH1 0x0 PUSH1 0x4 DUP3 ADD MSTORE PUSH1 0x24 ADD PUSH2 0x5A8 JUMP JUMPDEST PUSH1 0x1 PUSH1 0x1 PUSH1 0xA0 SHL SUB DUP4 AND PUSH2 0x115C JUMPI PUSH1 0x40 MLOAD PUSH4 0x4A1406B1 PUSH1 0xE1 SHL DUP2 MSTORE PUSH1 0x0 PUSH1 0x4 DUP3 ADD MSTORE PUSH1 0x24 ADD PUSH2 0x5A8 JUMP JUMPDEST PUSH1 0x1 PUSH1 0x1 PUSH1 0xA0 SHL SUB DUP1 DUP6 AND PUSH1 0x0 SWAP1 DUP2 MSTORE PUSH1 0x1 PUSH1 0x20 SWAP1 DUP2 MSTORE PUSH1 0x40 DUP1 DUP4 KECCAK256 SWAP4 DUP8 AND DUP4 MSTORE SWAP3 SWAP1 MSTORE KECCAK256 DUP3 SWAP1 SSTORE DUP1 ISZERO PUSH2 0x106D JUMPI DUP3 PUSH1 0x1 PUSH1 0x1 PUSH1 0xA0 SHL SUB AND DUP5 PUSH1 0x1 PUSH1 0x1 PUSH1 0xA0 SHL SUB AND PUSH32 0x8C5BE1E5EBEC7D5BD14F71427D1E84F3DD0314C0F7B2291E5B200AC8C7C3B925 DUP5 PUSH1 0x40 MLOAD PUSH2 0x11CF SWAP2 DUP2 MSTORE PUSH1 0x20 ADD SWAP1 JUMP JUMPDEST PUSH1 0x40 MLOAD DUP1 SWAP2 SUB SWAP1 LOG3 POP POP POP POP JUMP JUMPDEST PUSH1 0x0 PUSH1 0x20 DUP1 DUP4 MSTORE DUP4 MLOAD DUP1 DUP3 DUP6 ADD MSTORE PUSH1 0x0 JUMPDEST DUP2 DUP2 LT ISZERO PUSH2 0x120A JUMPI DUP6 DUP2 ADD DUP4 ADD MLOAD DUP6 DUP3 ADD PUSH1 0x40 ADD MSTORE DUP3 ADD PUSH2 0x11EE JUMP JUMPDEST POP PUSH1 0x0 PUSH1 0x40 DUP3 DUP7 ADD ADD MSTORE PUSH1 0x40 PUSH1 0x1F NOT PUSH1 0x1F DUP4 ADD AND DUP6 ADD ADD SWAP3 POP POP POP SWAP3 SWAP2 POP POP JUMP JUMPDEST DUP1 CALLDATALOAD PUSH1 0x1 PUSH1 0x1 PUSH1 0xA0 SHL SUB DUP2 AND DUP2 EQ PUSH2 0x1242 JUMPI PUSH1 0x0 DUP1 REVERT JUMPDEST SWAP2 SWAP1 POP JUMP JUMPDEST PUSH1 0x0 DUP1 PUSH1 0x40 DUP4 DUP6 SUB SLT ISZERO PUSH2 0x125A JUMPI PUSH1 0x0 DUP1 REVERT JUMPDEST PUSH2 0x1263 DUP4 PUSH2 0x122B JUMP JUMPDEST SWAP5 PUSH1 0x20 SWAP4 SWAP1 SWAP4 ADD CALLDATALOAD SWAP4 POP POP POP JUMP JUMPDEST PUSH1 0x0 PUSH1 0x20 DUP3 DUP5 SUB SLT ISZERO PUSH2 0x1283 JUMPI PUSH1 0x0 DUP1 REVERT JUMPDEST POP CALLDATALOAD SWAP2 SWAP1 POP JUMP JUMPDEST PUSH1 0x0 DUP1 PUSH1 0x0 PUSH1 0x60 DUP5 DUP7 SUB SLT ISZERO PUSH2 0x129F JUMPI PUSH1 0x0 DUP1 REVERT JUMPDEST PUSH2 0x12A8 DUP5 PUSH2 0x122B JUMP JUMPDEST SWAP3 POP PUSH2 0x12B6 PUSH1 0x20 DUP6 ADD PUSH2 0x122B JUMP JUMPDEST SWAP2 POP PUSH1 0x40 DUP5 ADD CALLDATALOAD SWAP1 POP SWAP3 POP SWAP3 POP SWAP3 JUMP JUMPDEST PUSH1 0x0 PUSH1 0x20 DUP3 DUP5 SUB SLT ISZERO PUSH2 0x12D8 JUMPI PUSH1 0x0 DUP1 REVERT JUMPDEST PUSH2 0x12E1 DUP3 PUSH2 0x122B JUMP JUMPDEST SWAP4 SWAP3 POP POP POP JUMP JUMPDEST PUSH1 0x0 DUP1 PUSH1 0x40 DUP4 DUP6 SUB SLT ISZERO PUSH2 0x12FB JUMPI PUSH1 0x0 DUP1 REVERT JUMPDEST POP POP DUP1 CALLDATALOAD SWAP3 PUSH1 0x20 SWAP1 SWAP2 ADD CALLDATALOAD SWAP2 POP JUMP JUMPDEST PUSH1 0x0 DUP1 PUSH1 0x0 DUP1 PUSH1 0x80 DUP6 DUP8 SUB SLT ISZERO PUSH2 0x1320 JUMPI PUSH1 0x0 DUP1 REVERT JUMPDEST POP POP DUP3 CALLDATALOAD SWAP5 PUSH1 0x20 DUP5 ADD CALLDATALOAD SWAP5 POP PUSH1 0x40 DUP5 ADD CALLDATALOAD SWAP4 PUSH1 0x60 ADD CALLDATALOAD SWAP3 POP SWAP1 POP JUMP JUMPDEST PUSH1 0x0 DUP2 MLOAD DUP1 DUP5 MSTORE PUSH1 0x20 DUP1 DUP6 ADD SWAP5 POP DUP1 DUP5 ADD PUSH1 0x0 JUMPDEST DUP4 DUP2 LT ISZERO PUSH2 0x1375 JUMPI DUP2 MLOAD PUSH1 0x1 PUSH1 0x1 PUSH1 0xA0 SHL SUB AND DUP8 MSTORE SWAP6 DUP3 ADD SWAP6 SWAP1 DUP3 ADD SWAP1 PUSH1 0x1 ADD PUSH2 0x1350 JUMP JUMPDEST POP SWAP5 SWAP6 SWAP5 POP POP POP POP POP JUMP JUMPDEST PUSH1 0x40 DUP2 MSTORE PUSH1 0x0 PUSH2 0x1393 PUSH1 0x40 DUP4 ADD DUP6 PUSH2 0x133C JUMP JUMPDEST DUP3 DUP2 SUB PUSH1 0x20 DUP5 DUP2 ADD SWAP2 SWAP1 SWAP2 MSTORE DUP5 MLOAD DUP1 DUP4 MSTORE DUP6 DUP3 ADD SWAP3 DUP3 ADD SWAP1 PUSH1 0x0 JUMPDEST DUP2 DUP2 LT ISZERO PUSH2 0x13CA JUMPI DUP5 MLOAD DUP4 MSTORE SWAP4 DUP4 ADD SWAP4 SWAP2 DUP4 ADD SWAP2 PUSH1 0x1 ADD PUSH2 0x13AE JUMP JUMPDEST POP SWAP1 SWAP8 SWAP7 POP POP POP POP POP POP POP JUMP JUMPDEST PUSH1 0x20 DUP2 MSTORE PUSH1 0x0 PUSH2 0x12E1 PUSH1 0x20 DUP4 ADD DUP5 PUSH2 0x133C JUMP JUMPDEST PUSH1 0x0 DUP1 PUSH1 0x40 DUP4 DUP6 SUB SLT ISZERO PUSH2 0x13FD JUMPI PUSH1 0x0 DUP1 REVERT JUMPDEST PUSH2 0x1406 DUP4 PUSH2 0x122B JUMP JUMPDEST SWAP2 POP PUSH2 0x1414 PUSH1 0x20 DUP5 ADD PUSH2 0x122B JUMP JUMPDEST SWAP1 POP SWAP3 POP SWAP3 SWAP1 POP JUMP JUMPDEST PUSH1 0x1 DUP2 DUP2 SHR SWAP1 DUP3 AND DUP1 PUSH2 0x1431 JUMPI PUSH1 0x7F DUP3 AND SWAP2 POP JUMPDEST PUSH1 0x20 DUP3 LT DUP2 SUB PUSH2 0x1451 JUMPI PUSH4 0x4E487B71 PUSH1 0xE0 SHL PUSH1 0x0 MSTORE PUSH1 0x22 PUSH1 0x4 MSTORE PUSH1 0x24 PUSH1 0x0 REVERT JUMPDEST POP SWAP2 SWAP1 POP JUMP JUMPDEST PUSH4 0x4E487B71 PUSH1 0xE0 SHL PUSH1 0x0 MSTORE PUSH1 0x11 PUSH1 0x4 MSTORE PUSH1 0x24 PUSH1 0x0 REVERT JUMPDEST DUP1 DUP3 MUL DUP2 ISZERO DUP3 DUP3 DIV DUP5 EQ OR PUSH2 0x549 JUMPI PUSH2 0x549 PUSH2 0x1457 JUMP JUMPDEST PUSH1 0x0 DUP3 PUSH2 0x14A1 JUMPI PUSH4 0x4E487B71 PUSH1 0xE0 SHL PUSH1 0x0 MSTORE PUSH1 0x12 PUSH1 0x4 MSTORE PUSH1 0x24 PUSH1 0x0 REVERT JUMPDEST POP DIV SWAP1 JUMP JUMPDEST DUP2 DUP2 SUB DUP2 DUP2 GT ISZERO PUSH2 0x549 JUMPI PUSH2 0x549 PUSH2 0x1457 JUMP JUMPDEST DUP1 DUP3 ADD DUP1 DUP3 GT ISZERO PUSH2 0x549 JUMPI PUSH2 0x549 PUSH2 0x1457 JUMP JUMPDEST PUSH1 0x0 PUSH1 0x1 DUP3 ADD PUSH2 0x14DE JUMPI PUSH2 0x14DE PUSH2 0x1457 JUMP JUMPDEST POP PUSH1 0x1 ADD SWAP1 JUMP JUMPDEST PUSH1 0x1 DUP2 DUP2 JUMPDEST DUP1 DUP6 GT ISZERO PUSH2 0x1520 JUMPI DUP2 PUSH1 0x0 NOT DIV DUP3 GT ISZERO PUSH2 0x1506 JUMPI PUSH2 0x1506 PUSH2 0x1457 JUMP JUMPDEST DUP1 DUP6 AND ISZERO PUSH2 0x1513 JUMPI SWAP2 DUP2 MUL SWAP2 JUMPDEST SWAP4 DUP5 SHR SWAP4 SWAP1 DUP1 MUL SWAP1 PUSH2 0x14EA JUMP JUMPDEST POP SWAP3 POP SWAP3 SWAP1 POP JUMP JUMPDEST PUSH1 0x0 DUP3 PUSH2 0x1537 JUMPI POP PUSH1 0x1 PUSH2 0x549 JUMP JUMPDEST DUP2 PUSH2 0x1544 JUMPI POP PUSH1 0x0 PUSH2 0x549 JUMP JUMPDEST DUP2 PUSH1 0x1 DUP2 EQ PUSH2 0x155A JUMPI PUSH1 0x2 DUP2 EQ PUSH2 0x1564 JUMPI PUSH2 0x1580 JUMP JUMPDEST PUSH1 0x1 SWAP2 POP POP PUSH2 0x549 JUMP JUMPDEST PUSH1 0xFF DUP5 GT ISZERO PUSH2 0x1575 JUMPI PUSH2 0x1575 PUSH2 0x1457 JUMP JUMPDEST POP POP PUSH1 0x1 DUP3 SHL PUSH2 0x549 JUMP JUMPDEST POP PUSH1 0x20 DUP4 LT PUSH2 0x133 DUP4 LT AND PUSH1 0x4E DUP5 LT PUSH1 0xB DUP5 LT AND OR ISZERO PUSH2 0x15A3 JUMPI POP DUP2 DUP2 EXP PUSH2 0x549 JUMP JUMPDEST PUSH2 0x15AD DUP4 DUP4 PUSH2 0x14E5 JUMP JUMPDEST DUP1 PUSH1 0x0 NOT DIV DUP3 GT ISZERO PUSH2 0x15C1 JUMPI PUSH2 0x15C1 PUSH2 0x1457 JUMP JUMPDEST MUL SWAP4 SWAP3 POP POP POP JUMP JUMPDEST PUSH1 0x0 PUSH2 0x12E1 DUP4 DUP4 PUSH2 0x1528 JUMP JUMPDEST PUSH4 0x4E487B71 PUSH1 0xE0 SHL PUSH1 0x0 MSTORE PUSH1 0x41 PUSH1 0x4 MSTORE PUSH1 0x24 PUSH1 0x0 REVERT JUMPDEST PUSH4 0x4E487B71 PUSH1 0xE0 SHL PUSH1 0x0 MSTORE PUSH1 0x32 PUSH1 0x4 MSTORE PUSH1 0x24 PUSH1 0x0 REVERT INVALID LOG1 PUSH5 0x736F6C6343 STOP ADDMOD EQ STOP EXP "},"gasEstimates":{"creation":{"codeDepositCost":"1129200","executionCost":"infinite","totalCost":"infinite"},"external":{"addPool(uint256,uint256,uint256,uint256)":"infinite","allowance(address,address)":"infinite","approve(address,uint256)":"24785","balanceOf(address)":"2585","checkClaimableRewards(uint256)":"infinite","checkPoolDetails(uint256)":"8938","checkRemainingCapacity(uint256)":"infinite","checkUserDepositInPool(uint256)":"infinite","checkUserDeposits(address)":"infinite","checkWhaleWallets()":"infinite","claimRewards(uint256)":"infinite","decimals()":"223","depositWei(uint256)":"infinite","name()":"infinite","owner()":"2404","symbol()":"infinite","totalSupply()":"2349","transfer(address,uint256)":"51289","transferFrom(address,address,uint256)":"infinite","withdrawWei(uint256,uint256)":"infinite"}},"methodIdentifiers":{"addPool(uint256,uint256,uint256,uint256)":"b7c7c4e0","allowance(address,address)":"dd62ed3e","approve(address,uint256)":"095ea7b3","balanceOf(address)":"70a08231","checkClaimableRewards(uint256)":"e0ebf61a","checkPoolDetails(uint256)":"8fb0a9f4","checkRemainingCapacity(uint256)":"f3bc21b9","checkUserDepositInPool(uint256)":"c94c178b","checkUserDeposits(address)":"31d98237","checkWhaleWallets()":"ca593db0","claimRewards(uint256)":"0962ef79","decimals()":"313ce567","depositWei(uint256)":"a3f81da0","name()":"06fdde03","owner()":"8da5cb5b","symbol()":"95d89b41","totalSupply()":"18160ddd","transfer(address,uint256)":"a9059cbb","transferFrom(address,address,uint256)":"23b872dd","withdrawWei(uint256,uint256)":"a8376b3c"}},"storageLayout":{"storage":[{"astId":159,"contract":"contracts/YieldFarming.sol:YieldFarming","label":"_balances","offset":0,"slot":"0","type":"t_mapping(t_address,t_uint256)"},{"astId":165,"contract":"contracts/YieldFarming.sol:YieldFarming","label":"_allowances","offset":0,"slot":"1","type":"t_mapping(t_address,t_mapping(t_address,t_uint256))"},{"astId":167,"contract":"contracts/YieldFarming.sol:YieldFarming","label":"_totalSupply","offset":0,"slot":"2","type":"t_uint256"},{"astId":169,"contract":"contracts/YieldFarming.sol:YieldFarming","label":"_name","offset":0,"slot":"3","type":"t_string_storage"},{"astId":171,"contract":"contracts/YieldFarming.sol:YieldFarming","label":"_symbol","offset":0,"slot":"4","type":"t_string_storage"},{"astId":792,"contract":"contracts/YieldFarming.sol:YieldFarming","label":"owner","offset":0,"slot":"5","type":"t_address"},{"astId":795,"contract":"contracts/YieldFarming.sol:YieldFarming","label":"whaleThreshold","offset":0,"slot":"6","type":"t_uint256"},{"astId":798,"contract":"contracts/YieldFarming.sol:YieldFarming","label":"whales","offset":0,"slot":"7","type":"t_array(t_address)dyn_storage"},{"astId":802,"contract":"contracts/YieldFarming.sol:YieldFarming","label":"isWhale","offset":0,"slot":"8","type":"t_mapping(t_address,t_bool)"},{"astId":806,"contract":"contracts/YieldFarming.sol:YieldFarming","label":"balance","offset":0,"slot":"9","type":"t_mapping(t_address,t_uint256)"},{"astId":808,"contract":"contracts/YieldFarming.sol:YieldFarming","label":"pId","offset":0,"slot":"10","type":"t_uint256"},{"astId":840,"contract":"contracts/YieldFarming.sol:YieldFarming","label":"pools","offset":0,"slot":"11","type":"t_mapping(t_uint256,t_struct(Pool)835_storage)"}],"types":{"t_address":{"encoding":"inplace","label":"address","numberOfBytes":"20"},"t_array(t_address)dyn_storage":{"base":"t_address","encoding":"dynamic_array","label":"address[]","numberOfBytes":"32"},"t_bool":{"encoding":"inplace","label":"bool","numberOfBytes":"1"},"t_mapping(t_address,t_bool)":{"encoding":"mapping","key":"t_address","label":"mapping(address => bool)","numberOfBytes":"32","value":"t_bool"},"t_mapping(t_address,t_mapping(t_address,t_uint256))":{"encoding":"mapping","key":"t_address","label":"mapping(address => mapping(address => uint256))","numberOfBytes":"32","value":"t_mapping(t_address,t_uint256)"},"t_mapping(t_address,t_struct(PoolDeposit)813_storage)":{"encoding":"mapping","key":"t_address","label":"mapping(address => struct YieldFarming.PoolDeposit)","numberOfBytes":"32","value":"t_struct(PoolDeposit)813_storage"},"t_mapping(t_address,t_uint256)":{"encoding":"mapping","key":"t_address","label":"mapping(address => uint256)","numberOfBytes":"32","value":"t_uint256"},"t_mapping(t_uint256,t_address)":{"encoding":"mapping","key":"t_uint256","label":"mapping(uint256 => address)","numberOfBytes":"32","value":"t_address"},"t_mapping(t_uint256,t_struct(Pool)835_storage)":{"encoding":"mapping","key":"t_uint256","label":"mapping(uint256 => struct YieldFarming.Pool)","numberOfBytes":"32","value":"t_struct(Pool)835_storage"},"t_string_storage":{"encoding":"bytes","label":"string","numberOfBytes":"32"},"t_struct(Pool)835_storage":{"encoding":"inplace","label":"struct YieldFarming.Pool","members":[{"astId":815,"contract":"contracts/YieldFarming.sol:YieldFarming","label":"userCount","offset":0,"slot":"0","type":"t_uint256"},{"astId":817,"contract":"contracts/YieldFarming.sol:YieldFarming","label":"maxAmount","offset":0,"slot":"1","type":"t_uint256"},{"astId":819,"contract":"contracts/YieldFarming.sol:YieldFarming","label":"yeildPercent","offset":0,"slot":"2","type":"t_uint256"},{"astId":821,"contract":"contracts/YieldFarming.sol:YieldFarming","label":"minDeposit","offset":0,"slot":"3","type":"t_uint256"},{"astId":823,"contract":"contracts/YieldFarming.sol:YieldFarming","label":"rewardTime","offset":0,"slot":"4","type":"t_uint256"},{"astId":825,"contract":"contracts/YieldFarming.sol:YieldFarming","label":"totalDeposit","offset":0,"slot":"5","type":"t_uint256"},{"astId":830,"contract":"contracts/YieldFarming.sol:YieldFarming","label":"ledger","offset":0,"slot":"6","type":"t_mapping(t_address,t_struct(PoolDeposit)813_storage)"},{"astId":834,"contract":"contracts/YieldFarming.sol:YieldFarming","label":"user","offset":0,"slot":"7","type":"t_mapping(t_uint256,t_address)"}],"numberOfBytes":"256"},"t_struct(PoolDeposit)813_storage":{"encoding":"inplace","label":"struct YieldFarming.PoolDeposit","members":[{"astId":810,"contract":"contracts/YieldFarming.sol:YieldFarming","label":"amount","offset":0,"slot":"0","type":"t_uint256"},{"astId":812,"contract":"contracts/YieldFarming.sol:YieldFarming","label":"time","offset":0,"slot":"1","type":"t_uint256"}],"numberOfBytes":"64"},"t_uint256":{"encoding":"inplace","label":"uint256","numberOfBytes":"32"}}},"userdoc":{"kind":"user","methods":{},"version":1}}}}